{
  "_format": "hh-sol-artifact-1",
  "contractName": "PropertyToken",
  "sourceName": "contracts/PropertyToken.sol",
  "abi": [
    {
      "inputs": [
        {
          "internalType": "string",
          "name": "name",
          "type": "string"
        },
        {
          "internalType": "string",
          "name": "symbol",
          "type": "string"
        },
        {
          "internalType": "uint256",
          "name": "totalSupply",
          "type": "uint256"
        },
        {
          "internalType": "address",
          "name": "owner",
          "type": "address"
        },
        {
          "internalType": "string",
          "name": "_location",
          "type": "string"
        },
        {
          "internalType": "uint256",
          "name": "_valuation",
          "type": "uint256"
        },
        {
          "internalType": "string",
          "name": "_metadataURI",
          "type": "string"
        }
      ],
      "stateMutability": "nonpayable",
      "type": "constructor"
    },
    {
      "inputs": [
        {
          "internalType": "address",
          "name": "spender",
          "type": "address"
        },
        {
          "internalType": "uint256",
          "name": "allowance",
          "type": "uint256"
        },
        {
          "internalType": "uint256",
          "name": "needed",
          "type": "uint256"
        }
      ],
      "name": "ERC20InsufficientAllowance",
      "type": "error"
    },
    {
      "inputs": [
        {
          "internalType": "address",
          "name": "sender",
          "type": "address"
        },
        {
          "internalType": "uint256",
          "name": "balance",
          "type": "uint256"
        },
        {
          "internalType": "uint256",
          "name": "needed",
          "type": "uint256"
        }
      ],
      "name": "ERC20InsufficientBalance",
      "type": "error"
    },
    {
      "inputs": [
        {
          "internalType": "address",
          "name": "approver",
          "type": "address"
        }
      ],
      "name": "ERC20InvalidApprover",
      "type": "error"
    },
    {
      "inputs": [
        {
          "internalType": "address",
          "name": "receiver",
          "type": "address"
        }
      ],
      "name": "ERC20InvalidReceiver",
      "type": "error"
    },
    {
      "inputs": [
        {
          "internalType": "address",
          "name": "sender",
          "type": "address"
        }
      ],
      "name": "ERC20InvalidSender",
      "type": "error"
    },
    {
      "inputs": [
        {
          "internalType": "address",
          "name": "spender",
          "type": "address"
        }
      ],
      "name": "ERC20InvalidSpender",
      "type": "error"
    },
    {
      "inputs": [],
      "name": "EnforcedPause",
      "type": "error"
    },
    {
      "inputs": [],
      "name": "ExpectedPause",
      "type": "error"
    },
    {
      "inputs": [
        {
          "internalType": "address",
          "name": "owner",
          "type": "address"
        }
      ],
      "name": "OwnableInvalidOwner",
      "type": "error"
    },
    {
      "inputs": [
        {
          "internalType": "address",
          "name": "account",
          "type": "address"
        }
      ],
      "name": "OwnableUnauthorizedAccount",
      "type": "error"
    },
    {
      "anonymous": false,
      "inputs": [
        {
          "indexed": true,
          "internalType": "address",
          "name": "owner",
          "type": "address"
        },
        {
          "indexed": true,
          "internalType": "address",
          "name": "spender",
          "type": "address"
        },
        {
          "indexed": false,
          "internalType": "uint256",
          "name": "value",
          "type": "uint256"
        }
      ],
      "name": "Approval",
      "type": "event"
    },
    {
      "anonymous": false,
      "inputs": [
        {
          "indexed": true,
          "internalType": "address",
          "name": "previousOwner",
          "type": "address"
        },
        {
          "indexed": true,
          "internalType": "address",
          "name": "newOwner",
          "type": "address"
        }
      ],
      "name": "OwnershipTransferred",
      "type": "event"
    },
    {
      "anonymous": false,
      "inputs": [
        {
          "indexed": false,
          "internalType": "address",
          "name": "account",
          "type": "address"
        }
      ],
      "name": "Paused",
      "type": "event"
    },
    {
      "anonymous": false,
      "inputs": [
        {
          "indexed": true,
          "internalType": "address",
          "name": "from",
          "type": "address"
        },
        {
          "indexed": true,
          "internalType": "address",
          "name": "to",
          "type": "address"
        },
        {
          "indexed": false,
          "internalType": "uint256",
          "name": "value",
          "type": "uint256"
        }
      ],
      "name": "Transfer",
      "type": "event"
    },
    {
      "anonymous": false,
      "inputs": [
        {
          "indexed": false,
          "internalType": "address",
          "name": "account",
          "type": "address"
        }
      ],
      "name": "Unpaused",
      "type": "event"
    },
    {
      "inputs": [
        {
          "internalType": "address",
          "name": "owner",
          "type": "address"
        },
        {
          "internalType": "address",
          "name": "spender",
          "type": "address"
        }
      ],
      "name": "allowance",
      "outputs": [
        {
          "internalType": "uint256",
          "name": "",
          "type": "uint256"
        }
      ],
      "stateMutability": "view",
      "type": "function"
    },
    {
      "inputs": [
        {
          "internalType": "address",
          "name": "spender",
          "type": "address"
        },
        {
          "internalType": "uint256",
          "name": "value",
          "type": "uint256"
        }
      ],
      "name": "approve",
      "outputs": [
        {
          "internalType": "bool",
          "name": "",
          "type": "bool"
        }
      ],
      "stateMutability": "nonpayable",
      "type": "function"
    },
    {
      "inputs": [
        {
          "internalType": "address",
          "name": "account",
          "type": "address"
        }
      ],
      "name": "balanceOf",
      "outputs": [
        {
          "internalType": "uint256",
          "name": "",
          "type": "uint256"
        }
      ],
      "stateMutability": "view",
      "type": "function"
    },
    {
      "inputs": [],
      "name": "decimals",
      "outputs": [
        {
          "internalType": "uint8",
          "name": "",
          "type": "uint8"
        }
      ],
      "stateMutability": "view",
      "type": "function"
    },
    {
      "inputs": [],
      "name": "metadataURI",
      "outputs": [
        {
          "internalType": "string",
          "name": "",
          "type": "string"
        }
      ],
      "stateMutability": "view",
      "type": "function"
    },
    {
      "inputs": [],
      "name": "name",
      "outputs": [
        {
          "internalType": "string",
          "name": "",
          "type": "string"
        }
      ],
      "stateMutability": "view",
      "type": "function"
    },
    {
      "inputs": [],
      "name": "owner",
      "outputs": [
        {
          "internalType": "address",
          "name": "",
          "type": "address"
        }
      ],
      "stateMutability": "view",
      "type": "function"
    },
    {
      "inputs": [],
      "name": "pause",
      "outputs": [],
      "stateMutability": "nonpayable",
      "type": "function"
    },
    {
      "inputs": [],
      "name": "paused",
      "outputs": [
        {
          "internalType": "bool",
          "name": "",
          "type": "bool"
        }
      ],
      "stateMutability": "view",
      "type": "function"
    },
    {
      "inputs": [],
      "name": "propertyLocation",
      "outputs": [
        {
          "internalType": "string",
          "name": "",
          "type": "string"
        }
      ],
      "stateMutability": "view",
      "type": "function"
    },
    {
      "inputs": [],
      "name": "propertyValuationUSD",
      "outputs": [
        {
          "internalType": "uint256",
          "name": "",
          "type": "uint256"
        }
      ],
      "stateMutability": "view",
      "type": "function"
    },
    {
      "inputs": [],
      "name": "renounceOwnership",
      "outputs": [],
      "stateMutability": "nonpayable",
      "type": "function"
    },
    {
      "inputs": [],
      "name": "symbol",
      "outputs": [
        {
          "internalType": "string",
          "name": "",
          "type": "string"
        }
      ],
      "stateMutability": "view",
      "type": "function"
    },
    {
      "inputs": [],
      "name": "totalSupply",
      "outputs": [
        {
          "internalType": "uint256",
          "name": "",
          "type": "uint256"
        }
      ],
      "stateMutability": "view",
      "type": "function"
    },
    {
      "inputs": [
        {
          "internalType": "address",
          "name": "to",
          "type": "address"
        },
        {
          "internalType": "uint256",
          "name": "value",
          "type": "uint256"
        }
      ],
      "name": "transfer",
      "outputs": [
        {
          "internalType": "bool",
          "name": "",
          "type": "bool"
        }
      ],
      "stateMutability": "nonpayable",
      "type": "function"
    },
    {
      "inputs": [
        {
          "internalType": "address",
          "name": "from",
          "type": "address"
        },
        {
          "internalType": "address",
          "name": "to",
          "type": "address"
        },
        {
          "internalType": "uint256",
          "name": "value",
          "type": "uint256"
        }
      ],
      "name": "transferFrom",
      "outputs": [
        {
          "internalType": "bool",
          "name": "",
          "type": "bool"
        }
      ],
      "stateMutability": "nonpayable",
      "type": "function"
    },
    {
      "inputs": [
        {
          "internalType": "address",
          "name": "newOwner",
          "type": "address"
        }
      ],
      "name": "transferOwnership",
      "outputs": [],
      "stateMutability": "nonpayable",
      "type": "function"
    },
    {
      "inputs": [],
      "name": "unpause",
      "outputs": [],
      "stateMutability": "nonpayable",
      "type": "function"
    },
    {
      "inputs": [
        {
          "internalType": "string",
          "name": "newURI",
          "type": "string"
        }
      ],
      "name": "updateMetadataURI",
      "outputs": [],
      "stateMutability": "nonpayable",
      "type": "function"
    },
    {
      "inputs": [
        {
          "internalType": "uint256",
          "name": "newValuation",
          "type": "uint256"
        }
      ],
      "name": "updateValuation",
      "outputs": [],
      "stateMutability": "nonpayable",
      "type": "function"
    }
  ],
  "bytecode": "0x60806040523480156200001157600080fd5b5060405162001332380380620013328339810160408190526200003491620003cc565b338787600362000045838262000539565b50600462000054828262000539565b5050506001600160a01b0381166200008757604051631e4fbdf760e01b8152600060048201526024015b60405180910390fd5b6200009281620000cf565b506006620000a1848262000539565b5060078290556008620000b5828262000539565b50620000c2848662000129565b505050505050506200062d565b600580546001600160a01b03838116610100818102610100600160a81b031985161790945560405193909204169182907f8be0079c531659141344cd1fd0a4f28419497f9722a3daafe3b4186f6b6457e090600090a35050565b6001600160a01b038216620001555760405163ec442f0560e01b8152600060048201526024016200007e565b620001636000838362000167565b5050565b6200017483838362000179565b505050565b6200018362000190565b62000174838383620001b7565b60055460ff1615620001b55760405163d93c066560e01b815260040160405180910390fd5b565b6001600160a01b038316620001e6578060026000828254620001da919062000605565b909155506200025a9050565b6001600160a01b038316600090815260208190526040902054818110156200023b5760405163391434e360e21b81526001600160a01b038516600482015260248101829052604481018390526064016200007e565b6001600160a01b03841660009081526020819052604090209082900390555b6001600160a01b038216620002785760028054829003905562000297565b6001600160a01b03821660009081526020819052604090208054820190555b816001600160a01b0316836001600160a01b03167fddf252ad1be2c89b69c2b068fc378daa952ba7f163c4a11628f55a4df523b3ef83604051620002dd91815260200190565b60405180910390a3505050565b634e487b7160e01b600052604160045260246000fd5b600082601f8301126200031257600080fd5b81516001600160401b03808211156200032f576200032f620002ea565b604051601f8301601f19908116603f011681019082821181831017156200035a576200035a620002ea565b816040528381526020925086838588010111156200037757600080fd5b600091505b838210156200039b57858201830151818301840152908201906200037c565b600093810190920192909252949350505050565b80516001600160a01b0381168114620003c757600080fd5b919050565b600080600080600080600060e0888a031215620003e857600080fd5b87516001600160401b03808211156200040057600080fd5b6200040e8b838c0162000300565b985060208a01519150808211156200042557600080fd5b620004338b838c0162000300565b975060408a015196506200044a60608b01620003af565b955060808a01519150808211156200046157600080fd5b6200046f8b838c0162000300565b945060a08a0151935060c08a01519150808211156200048d57600080fd5b506200049c8a828b0162000300565b91505092959891949750929550565b600181811c90821680620004c057607f821691505b602082108103620004e157634e487b7160e01b600052602260045260246000fd5b50919050565b601f8211156200017457600081815260208120601f850160051c81016020861015620005105750805b601f850160051c820191505b8181101562000531578281556001016200051c565b505050505050565b81516001600160401b03811115620005555762000555620002ea565b6200056d81620005668454620004ab565b84620004e7565b602080601f831160018114620005a557600084156200058c5750858301515b600019600386901b1c1916600185901b17855562000531565b600085815260208120601f198616915b82811015620005d657888601518255948401946001909101908401620005b5565b5085821015620005f55787850151600019600388901b60f8161c191681555b5050505050600190811b01905550565b808201808211156200062757634e487b7160e01b600052601160045260246000fd5b92915050565b610cf5806200063d6000396000f3fe608060405234801561001057600080fd5b506004361061012b5760003560e01c806370a08231116100ad578063a9059cbb11610071578063a9059cbb14610252578063b5d2de5c14610265578063c97ff9621461026d578063dd62ed3e14610276578063f2fde38b146102af57600080fd5b806370a08231146101e8578063715018a6146102115780638456cb59146102195780638da5cb5b1461022157806395d89b411461024a57600080fd5b806323b872dd116100f457806323b872dd146101a0578063313ce567146101b35780633f4ba83a146101c257806353fd3e81146101ca5780635c975abb146101dd57600080fd5b806243286e1461013057806303ee438c1461014557806306fdde0314610163578063095ea7b31461016b57806318160ddd1461018e575b600080fd5b61014361013e366004610951565b6102c2565b005b61014d6102cf565b60405161015a919061096a565b60405180910390f35b61014d61035d565b61017e6101793660046109d4565b6103ef565b604051901515815260200161015a565b6002545b60405190815260200161015a565b61017e6101ae3660046109fe565b610409565b6040516012815260200161015a565b61014361042d565b6101436101d8366004610a50565b61043f565b60055460ff1661017e565b6101926101f6366004610b01565b6001600160a01b031660009081526020819052604090205490565b610143610457565b610143610469565b60055461010090046001600160a01b03166040516001600160a01b03909116815260200161015a565b61014d610479565b61017e6102603660046109d4565b610488565b61014d610496565b61019260075481565b610192610284366004610b23565b6001600160a01b03918216600090815260016020908152604080832093909416825291909152205490565b6101436102bd366004610b01565b6104a3565b6102ca6104e6565b600755565b600880546102dc90610b56565b80601f016020809104026020016040519081016040528092919081815260200182805461030890610b56565b80156103555780601f1061032a57610100808354040283529160200191610355565b820191906000526020600020905b81548152906001019060200180831161033857829003601f168201915b505050505081565b60606003805461036c90610b56565b80601f016020809104026020016040519081016040528092919081815260200182805461039890610b56565b80156103e55780601f106103ba576101008083540402835291602001916103e5565b820191906000526020600020905b8154815290600101906020018083116103c857829003601f168201915b5050505050905090565b6000336103fd818585610519565b60019150505b92915050565b60003361041785828561052b565b6104228585856105aa565b506001949350505050565b6104356104e6565b61043d610609565b565b6104476104e6565b60086104538282610bde565b5050565b61045f6104e6565b61043d600061065b565b6104716104e6565b61043d6106b5565b60606004805461036c90610b56565b6000336103fd8185856105aa565b600680546102dc90610b56565b6104ab6104e6565b6001600160a01b0381166104da57604051631e4fbdf760e01b8152600060048201526024015b60405180910390fd5b6104e38161065b565b50565b6005546001600160a01b0361010090910416331461043d5760405163118cdaa760e01b81523360048201526024016104d1565b61052683838360016106f2565b505050565b6001600160a01b038381166000908152600160209081526040808320938616835292905220546000198110156105a4578181101561059557604051637dc7a0d960e11b81526001600160a01b038416600482015260248101829052604481018390526064016104d1565b6105a4848484840360006106f2565b50505050565b6001600160a01b0383166105d457604051634b637e8f60e11b8152600060048201526024016104d1565b6001600160a01b0382166105fe5760405163ec442f0560e01b8152600060048201526024016104d1565b6105268383836107c7565b6106116107d2565b6005805460ff191690557f5db9ee0a495bf2e6ff9c91a7834c1ba4fdd244a5e8aa4e537bd38aeae4b073aa335b6040516001600160a01b03909116815260200160405180910390a1565b600580546001600160a01b03838116610100818102610100600160a81b031985161790945560405193909204169182907f8be0079c531659141344cd1fd0a4f28419497f9722a3daafe3b4186f6b6457e090600090a35050565b6106bd6107f5565b6005805460ff191660011790557f62e78cea01bee320cd4e420270b5ea74000d11b0c9f74754ebdbfc544b05a25861063e3390565b6001600160a01b03841661071c5760405163e602df0560e01b8152600060048201526024016104d1565b6001600160a01b03831661074657604051634a1406b160e11b8152600060048201526024016104d1565b6001600160a01b03808516600090815260016020908152604080832093871683529290522082905580156105a457826001600160a01b0316846001600160a01b03167f8c5be1e5ebec7d5bd14f71427d1e84f3dd0314c0f7b2291e5b200ac8c7c3b925846040516107b991815260200190565b60405180910390a350505050565b610526838383610819565b60055460ff1661043d57604051638dfc202b60e01b815260040160405180910390fd5b60055460ff161561043d5760405163d93c066560e01b815260040160405180910390fd5b6108216107f5565b6105268383836001600160a01b0383166108525780600260008282546108479190610c9e565b909155506108c49050565b6001600160a01b038316600090815260208190526040902054818110156108a55760405163391434e360e21b81526001600160a01b038516600482015260248101829052604481018390526064016104d1565b6001600160a01b03841660009081526020819052604090209082900390555b6001600160a01b0382166108e0576002805482900390556108ff565b6001600160a01b03821660009081526020819052604090208054820190555b816001600160a01b0316836001600160a01b03167fddf252ad1be2c89b69c2b068fc378daa952ba7f163c4a11628f55a4df523b3ef8360405161094491815260200190565b60405180910390a3505050565b60006020828403121561096357600080fd5b5035919050565b600060208083528351808285015260005b818110156109975785810183015185820160400152820161097b565b506000604082860101526040601f19601f8301168501019250505092915050565b80356001600160a01b03811681146109cf57600080fd5b919050565b600080604083850312156109e757600080fd5b6109f0836109b8565b946020939093013593505050565b600080600060608486031215610a1357600080fd5b610a1c846109b8565b9250610a2a602085016109b8565b9150604084013590509250925092565b634e487b7160e01b600052604160045260246000fd5b600060208284031215610a6257600080fd5b813567ffffffffffffffff80821115610a7a57600080fd5b818401915084601f830112610a8e57600080fd5b813581811115610aa057610aa0610a3a565b604051601f8201601f19908116603f01168101908382118183101715610ac857610ac8610a3a565b81604052828152876020848701011115610ae157600080fd5b826020860160208301376000928101602001929092525095945050505050565b600060208284031215610b1357600080fd5b610b1c826109b8565b9392505050565b60008060408385031215610b3657600080fd5b610b3f836109b8565b9150610b4d602084016109b8565b90509250929050565b600181811c90821680610b6a57607f821691505b602082108103610b8a57634e487b7160e01b600052602260045260246000fd5b50919050565b601f82111561052657600081815260208120601f850160051c81016020861015610bb75750805b601f850160051c820191505b81811015610bd657828155600101610bc3565b505050505050565b815167ffffffffffffffff811115610bf857610bf8610a3a565b610c0c81610c068454610b56565b84610b90565b602080601f831160018114610c415760008415610c295750858301515b600019600386901b1c1916600185901b178555610bd6565b600085815260208120601f198616915b82811015610c7057888601518255948401946001909101908401610c51565b5085821015610c8e5787850151600019600388901b60f8161c191681555b5050505050600190811b01905550565b8082018082111561040357634e487b7160e01b600052601160045260246000fdfea264697066735822122053ba86ab9f7fa03667ee7a97e621461835f8735417b447925ef2db53fc54b02b64736f6c63430008140033",
  "linkReferences": {},
  "deployedLinkReferences": {}
}