{
  "_format": "hh-sol-artifact-1",
  "contractName": "PropertyRegistry",
  "sourceName": "contracts/PropertyRegistry.sol",
  "abi": [
    {
      "inputs": [],
      "stateMutability": "nonpayable",
      "type": "constructor"
    },
    {
      "inputs": [
        {
          "internalType": "address",
          "name": "owner",
          "type": "address"
        }
      ],
      "name": "OwnableInvalidOwner",
      "type": "error"
    },
    {
      "inputs": [
        {
          "internalType": "address",
          "name": "account",
          "type": "address"
        }
      ],
      "name": "OwnableUnauthorizedAccount",
      "type": "error"
    },
    {
      "anonymous": false,
      "inputs": [
        {
          "indexed": true,
          "internalType": "uint256",
          "name": "propertyId",
          "type": "uint256"
        },
        {
          "indexed": true,
          "internalType": "address",
          "name": "from",
          "type": "address"
        },
        {
          "indexed": true,
          "internalType": "address",
          "name": "to",
          "type": "address"
        },
        {
          "indexed": false,
          "internalType": "uint256",
          "name": "tokens",
          "type": "uint256"
        },
        {
          "indexed": false,
          "internalType": "bytes32",
          "name": "txHash",
          "type": "bytes32"
        }
      ],
      "name": "OwnershipTransferRecorded",
      "type": "event"
    },
    {
      "anonymous": false,
      "inputs": [
        {
          "indexed": true,
          "internalType": "address",
          "name": "previousOwner",
          "type": "address"
        },
        {
          "indexed": true,
          "internalType": "address",
          "name": "newOwner",
          "type": "address"
        }
      ],
      "name": "OwnershipTransferred",
      "type": "event"
    },
    {
      "anonymous": false,
      "inputs": [
        {
          "indexed": true,
          "internalType": "uint256",
          "name": "propertyId",
          "type": "uint256"
        },
        {
          "indexed": false,
          "internalType": "string",
          "name": "title",
          "type": "string"
        },
        {
          "indexed": true,
          "internalType": "address",
          "name": "tokenAddress",
          "type": "address"
        }
      ],
      "name": "PropertyRegistered",
      "type": "event"
    },
    {
      "inputs": [
        {
          "internalType": "uint256",
          "name": "propertyId",
          "type": "uint256"
        }
      ],
      "name": "getPropertyMetadata",
      "outputs": [
        {
          "components": [
            {
              "internalType": "uint256",
              "name": "id",
              "type": "uint256"
            },
            {
              "internalType": "string",
              "name": "title",
              "type": "string"
            },
            {
              "internalType": "string",
              "name": "location",
              "type": "string"
            },
            {
              "internalType": "string",
              "name": "country",
              "type": "string"
            },
            {
              "internalType": "uint256",
              "name": "valuationUSD",
              "type": "uint256"
            },
            {
              "internalType": "address",
              "name": "tokenAddress",
              "type": "address"
            },
            {
              "internalType": "string",
              "name": "metadataURI",
              "type": "string"
            },
            {
              "internalType": "uint256",
              "name": "createdAt",
              "type": "uint256"
            }
          ],
          "internalType": "struct PropertyRegistry.PropertyMetadata",
          "name": "",
          "type": "tuple"
        }
      ],
      "stateMutability": "view",
      "type": "function"
    },
    {
      "inputs": [],
      "name": "owner",
      "outputs": [
        {
          "internalType": "address",
          "name": "",
          "type": "address"
        }
      ],
      "stateMutability": "view",
      "type": "function"
    },
    {
      "inputs": [
        {
          "internalType": "uint256",
          "name": "",
          "type": "uint256"
        }
      ],
      "name": "properties",
      "outputs": [
        {
          "internalType": "uint256",
          "name": "id",
          "type": "uint256"
        },
        {
          "internalType": "string",
          "name": "title",
          "type": "string"
        },
        {
          "internalType": "string",
          "name": "location",
          "type": "string"
        },
        {
          "internalType": "string",
          "name": "country",
          "type": "string"
        },
        {
          "internalType": "uint256",
          "name": "valuationUSD",
          "type": "uint256"
        },
        {
          "internalType": "address",
          "name": "tokenAddress",
          "type": "address"
        },
        {
          "internalType": "string",
          "name": "metadataURI",
          "type": "string"
        },
        {
          "internalType": "uint256",
          "name": "createdAt",
          "type": "uint256"
        }
      ],
      "stateMutability": "view",
      "type": "function"
    },
    {
      "inputs": [
        {
          "internalType": "uint256",
          "name": "propertyId",
          "type": "uint256"
        },
        {
          "internalType": "address",
          "name": "from",
          "type": "address"
        },
        {
          "internalType": "address",
          "name": "to",
          "type": "address"
        },
        {
          "internalType": "uint256",
          "name": "tokens",
          "type": "uint256"
        },
        {
          "internalType": "bytes32",
          "name": "txHash",
          "type": "bytes32"
        }
      ],
      "name": "recordOwnershipTransfer",
      "outputs": [],
      "stateMutability": "nonpayable",
      "type": "function"
    },
    {
      "inputs": [
        {
          "internalType": "string",
          "name": "title",
          "type": "string"
        },
        {
          "internalType": "string",
          "name": "location",
          "type": "string"
        },
        {
          "internalType": "string",
          "name": "country",
          "type": "string"
        },
        {
          "internalType": "uint256",
          "name": "valuationUSD",
          "type": "uint256"
        },
        {
          "internalType": "address",
          "name": "tokenAddress",
          "type": "address"
        },
        {
          "internalType": "string",
          "name": "metadataURI",
          "type": "string"
        }
      ],
      "name": "registerProperty",
      "outputs": [
        {
          "internalType": "uint256",
          "name": "propertyId",
          "type": "uint256"
        }
      ],
      "stateMutability": "nonpayable",
      "type": "function"
    },
    {
      "inputs": [],
      "name": "renounceOwnership",
      "outputs": [],
      "stateMutability": "nonpayable",
      "type": "function"
    },
    {
      "inputs": [
        {
          "internalType": "address",
          "name": "",
          "type": "address"
        }
      ],
      "name": "tokenToPropertyId",
      "outputs": [
        {
          "internalType": "uint256",
          "name": "",
          "type": "uint256"
        }
      ],
      "stateMutability": "view",
      "type": "function"
    },
    {
      "inputs": [
        {
          "internalType": "address",
          "name": "newOwner",
          "type": "address"
        }
      ],
      "name": "transferOwnership",
      "outputs": [],
      "stateMutability": "nonpayable",
      "type": "function"
    },
    {
      "inputs": [
        {
          "internalType": "uint256",
          "name": "propertyId",
          "type": "uint256"
        },
        {
          "internalType": "address",
          "name": "user",
          "type": "address"
        }
      ],
      "name": "verifyOwnership",
      "outputs": [
        {
          "internalType": "uint256",
          "name": "",
          "type": "uint256"
        }
      ],
      "stateMutability": "view",
      "type": "function"
    }
  ],
  "bytecode": "0x60806040526001805534801561001457600080fd5b50338061003b57604051631e4fbdf760e01b81526000600482015260240160405180910390fd5b6100448161004a565b5061009a565b600080546001600160a01b038381166001600160a01b0319831681178455604051919092169283917f8be0079c531659141344cd1fd0a4f28419497f9722a3daafe3b4186f6b6457e09190a35050565b610f03806100a96000396000f3fe608060405234801561001057600080fd5b50600436106100935760003560e01c806396c0fe8a1161006657806396c0fe8a146100f95780639c49b1571461010c578063a47fbde11461012c578063f2fde38b1461014c578063f7b108081461015f57600080fd5b806309cc449d1461009857806340904201146100c1578063715018a6146100d65780638da5cb5b146100de575b600080fd5b6100ae6100a63660046109a5565b600092915050565b6040519081526020015b60405180910390f35b6100d46100cf3660046109d1565b610186565b005b6100d46101ec565b6000546040516001600160a01b0390911681526020016100b8565b6100ae610107366004610ac2565b610200565b61011f61011a366004610b88565b610366565b6040516100b89190610be7565b6100ae61013a366004610ca6565b60036020526000908152604090205481565b6100d461015a366004610ca6565b61065a565b61017261016d366004610b88565b61069d565b6040516100b8989796959493929190610cc8565b61018e61090c565b826001600160a01b0316846001600160a01b0316867f5783af96a6f2894b71892c2bb09f9674f581afa85d4a1066f4d8a47a63bb295e85856040516101dd929190918252602082015260400190565b60405180910390a45050505050565b6101f461090c565b6101fe6000610939565b565b600061020a61090c565b6001805490600061021a83610d4a565b90915550604080516101008101825282815260208082018b81528284018b9052606083018a9052608083018990526001600160a01b03881660a084015260c083018790524260e08401526000858152600290925292902081518155915192935091600182019061028a9082610dfa565b506040820151600282019061029f9082610dfa565b50606082015160038201906102b49082610dfa565b506080820151600482015560a08201516005820180546001600160a01b0319166001600160a01b0390921691909117905560c082015160068201906102f99082610dfa565b5060e091909101516007909101556001600160a01b038316600081815260036020526040908190208390555182907f48f60036379fd7c4097915cf4b2dcab366c2d3881ae8b3cb2c19d6f7e35719b990610354908b90610eba565b60405180910390a39695505050505050565b6103b7604051806101000160405280600081526020016060815260200160608152602001606081526020016000815260200160006001600160a01b0316815260200160608152602001600081525090565b6002600083815260200190815260200160002060405180610100016040529081600082015481526020016001820180546103f090610d71565b80601f016020809104026020016040519081016040528092919081815260200182805461041c90610d71565b80156104695780601f1061043e57610100808354040283529160200191610469565b820191906000526020600020905b81548152906001019060200180831161044c57829003601f168201915b5050505050815260200160028201805461048290610d71565b80601f01602080910402602001604051908101604052809291908181526020018280546104ae90610d71565b80156104fb5780601f106104d0576101008083540402835291602001916104fb565b820191906000526020600020905b8154815290600101906020018083116104de57829003601f168201915b5050505050815260200160038201805461051490610d71565b80601f016020809104026020016040519081016040528092919081815260200182805461054090610d71565b801561058d5780601f106105625761010080835404028352916020019161058d565b820191906000526020600020905b81548152906001019060200180831161057057829003601f168201915b50505091835250506004820154602082015260058201546001600160a01b031660408201526006820180546060909201916105c790610d71565b80601f01602080910402602001604051908101604052809291908181526020018280546105f390610d71565b80156106405780601f1061061557610100808354040283529160200191610640565b820191906000526020600020905b81548152906001019060200180831161062357829003601f168201915b505050505081526020016007820154815250509050919050565b61066261090c565b6001600160a01b03811661069157604051631e4fbdf760e01b8152600060048201526024015b60405180910390fd5b61069a81610939565b50565b600260205260009081526040902080546001820180549192916106bf90610d71565b80601f01602080910402602001604051908101604052809291908181526020018280546106eb90610d71565b80156107385780601f1061070d57610100808354040283529160200191610738565b820191906000526020600020905b81548152906001019060200180831161071b57829003601f168201915b50505050509080600201805461074d90610d71565b80601f016020809104026020016040519081016040528092919081815260200182805461077990610d71565b80156107c65780601f1061079b576101008083540402835291602001916107c6565b820191906000526020600020905b8154815290600101906020018083116107a957829003601f168201915b5050505050908060030180546107db90610d71565b80601f016020809104026020016040519081016040528092919081815260200182805461080790610d71565b80156108545780601f1061082957610100808354040283529160200191610854565b820191906000526020600020905b81548152906001019060200180831161083757829003601f168201915b5050505060048301546005840154600685018054949592946001600160a01b0390921693509061088390610d71565b80601f01602080910402602001604051908101604052809291908181526020018280546108af90610d71565b80156108fc5780601f106108d1576101008083540402835291602001916108fc565b820191906000526020600020905b8154815290600101906020018083116108df57829003601f168201915b5050505050908060070154905088565b6000546001600160a01b031633146101fe5760405163118cdaa760e01b8152336004820152602401610688565b600080546001600160a01b038381166001600160a01b0319831681178455604051919092169283917f8be0079c531659141344cd1fd0a4f28419497f9722a3daafe3b4186f6b6457e09190a35050565b80356001600160a01b03811681146109a057600080fd5b919050565b600080604083850312156109b857600080fd5b823591506109c860208401610989565b90509250929050565b600080600080600060a086880312156109e957600080fd5b853594506109f960208701610989565b9350610a0760408701610989565b94979396509394606081013594506080013592915050565b634e487b7160e01b600052604160045260246000fd5b600082601f830112610a4657600080fd5b813567ffffffffffffffff80821115610a6157610a61610a1f565b604051601f8301601f19908116603f01168101908282118183101715610a8957610a89610a1f565b81604052838152866020858801011115610aa257600080fd5b836020870160208301376000602085830101528094505050505092915050565b60008060008060008060c08789031215610adb57600080fd5b863567ffffffffffffffff80821115610af357600080fd5b610aff8a838b01610a35565b97506020890135915080821115610b1557600080fd5b610b218a838b01610a35565b96506040890135915080821115610b3757600080fd5b610b438a838b01610a35565b955060608901359450610b5860808a01610989565b935060a0890135915080821115610b6e57600080fd5b50610b7b89828a01610a35565b9150509295509295509295565b600060208284031215610b9a57600080fd5b5035919050565b6000815180845260005b81811015610bc757602081850181015186830182015201610bab565b506000602082860101526020601f19601f83011685010191505092915050565b602081528151602082015260006020830151610100806040850152610c10610120850183610ba1565b91506040850151601f1980868503016060870152610c2e8483610ba1565b93506060870151915080868503016080870152610c4b8483610ba1565b9350608087015160a087015260a08701519150610c7360c08701836001600160a01b03169052565b60c08701519150808685030160e087015250610c8f8382610ba1565b92505060e085015181850152508091505092915050565b600060208284031215610cb857600080fd5b610cc182610989565b9392505050565b60006101008a8352806020840152610ce28184018b610ba1565b90508281036040840152610cf6818a610ba1565b90508281036060840152610d0a8189610ba1565b608084018890526001600160a01b03871660a085015283810360c08501529050610d348186610ba1565b9150508260e08301529998505050505050505050565b600060018201610d6a57634e487b7160e01b600052601160045260246000fd5b5060010190565b600181811c90821680610d8557607f821691505b602082108103610da557634e487b7160e01b600052602260045260246000fd5b50919050565b601f821115610df557600081815260208120601f850160051c81016020861015610dd25750805b601f850160051c820191505b81811015610df157828155600101610dde565b5050505b505050565b815167ffffffffffffffff811115610e1457610e14610a1f565b610e2881610e228454610d71565b84610dab565b602080601f831160018114610e5d5760008415610e455750858301515b600019600386901b1c1916600185901b178555610df1565b600085815260208120601f198616915b82811015610e8c57888601518255948401946001909101908401610e6d565b5085821015610eaa5787850151600019600388901b60f8161c191681555b5050505050600190811b01905550565b602081526000610cc16020830184610ba156fea2646970667358221220d561dedad60fe95dc726abe165a18950a5f2045802d0fbc064efbe50c01a753164736f6c63430008140033",
  "linkReferences": {},
  "deployedLinkReferences": {}
}