{
  "_format": "hh-sol-artifact-1",
  "contractName": "EscrowManager",
  "sourceName": "contracts/EscrowManager.sol",
  "abi": [
    {
      "inputs": [],
      "stateMutability": "nonpayable",
      "type": "constructor"
    },
    {
      "inputs": [
        {
          "internalType": "address",
          "name": "owner",
          "type": "address"
        }
      ],
      "name": "OwnableInvalidOwner",
      "type": "error"
    },
    {
      "inputs": [
        {
          "internalType": "address",
          "name": "account",
          "type": "address"
        }
      ],
      "name": "OwnableUnauthorizedAccount",
      "type": "error"
    },
    {
      "inputs": [],
      "name": "ReentrancyGuardReentrantCall",
      "type": "error"
    },
    {
      "anonymous": false,
      "inputs": [
        {
          "indexed": true,
          "internalType": "uint256",
          "name": "escrowId",
          "type": "uint256"
        },
        {
          "indexed": false,
          "internalType": "address",
          "name": "confirmer",
          "type": "address"
        }
      ],
      "name": "EscrowConfirmed",
      "type": "event"
    },
    {
      "anonymous": false,
      "inputs": [
        {
          "indexed": true,
          "internalType": "uint256",
          "name": "escrowId",
          "type": "uint256"
        },
        {
          "indexed": false,
          "internalType": "address",
          "name": "buyer",
          "type": "address"
        },
        {
          "indexed": false,
          "internalType": "address",
          "name": "seller",
          "type": "address"
        },
        {
          "indexed": false,
          "internalType": "uint256",
          "name": "tokenAmount",
          "type": "uint256"
        },
        {
          "indexed": false,
          "internalType": "uint256",
          "name": "dinarAmount",
          "type": "uint256"
        }
      ],
      "name": "EscrowInitiated",
      "type": "event"
    },
    {
      "anonymous": false,
      "inputs": [
        {
          "indexed": true,
          "internalType": "uint256",
          "name": "escrowId",
          "type": "uint256"
        }
      ],
      "name": "EscrowRefunded",
      "type": "event"
    },
    {
      "anonymous": false,
      "inputs": [
        {
          "indexed": true,
          "internalType": "uint256",
          "name": "escrowId",
          "type": "uint256"
        }
      ],
      "name": "EscrowReleased",
      "type": "event"
    },
    {
      "anonymous": false,
      "inputs": [
        {
          "indexed": true,
          "internalType": "address",
          "name": "previousOwner",
          "type": "address"
        },
        {
          "indexed": true,
          "internalType": "address",
          "name": "newOwner",
          "type": "address"
        }
      ],
      "name": "OwnershipTransferred",
      "type": "event"
    },
    {
      "inputs": [],
      "name": "TIMEOUT",
      "outputs": [
        {
          "internalType": "uint256",
          "name": "",
          "type": "uint256"
        }
      ],
      "stateMutability": "view",
      "type": "function"
    },
    {
      "inputs": [
        {
          "internalType": "uint256",
          "name": "escrowId",
          "type": "uint256"
        }
      ],
      "name": "confirmEscrowByAdmin",
      "outputs": [],
      "stateMutability": "nonpayable",
      "type": "function"
    },
    {
      "inputs": [
        {
          "internalType": "uint256",
          "name": "escrowId",
          "type": "uint256"
        }
      ],
      "name": "confirmEscrowBySeller",
      "outputs": [],
      "stateMutability": "nonpayable",
      "type": "function"
    },
    {
      "inputs": [
        {
          "internalType": "uint256",
          "name": "",
          "type": "uint256"
        }
      ],
      "name": "escrows",
      "outputs": [
        {
          "internalType": "address",
          "name": "buyer",
          "type": "address"
        },
        {
          "internalType": "address",
          "name": "seller",
          "type": "address"
        },
        {
          "internalType": "address",
          "name": "propertyToken",
          "type": "address"
        },
        {
          "internalType": "uint256",
          "name": "tokenAmount",
          "type": "uint256"
        },
        {
          "internalType": "uint256",
          "name": "dinarAmount",
          "type": "uint256"
        },
        {
          "internalType": "enum EscrowManager.EscrowStatus",
          "name": "status",
          "type": "uint8"
        },
        {
          "internalType": "uint256",
          "name": "createdAt",
          "type": "uint256"
        },
        {
          "internalType": "bool",
          "name": "sellerConfirmed",
          "type": "bool"
        },
        {
          "internalType": "bool",
          "name": "adminConfirmed",
          "type": "bool"
        }
      ],
      "stateMutability": "view",
      "type": "function"
    },
    {
      "inputs": [
        {
          "internalType": "uint256",
          "name": "escrowId",
          "type": "uint256"
        }
      ],
      "name": "getEscrowStatus",
      "outputs": [
        {
          "internalType": "enum EscrowManager.EscrowStatus",
          "name": "",
          "type": "uint8"
        }
      ],
      "stateMutability": "view",
      "type": "function"
    },
    {
      "inputs": [
        {
          "internalType": "address",
          "name": "seller",
          "type": "address"
        },
        {
          "internalType": "address",
          "name": "propertyToken",
          "type": "address"
        },
        {
          "internalType": "uint256",
          "name": "tokenAmount",
          "type": "uint256"
        },
        {
          "internalType": "uint256",
          "name": "dinarAmount",
          "type": "uint256"
        }
      ],
      "name": "initiateEscrow",
      "outputs": [
        {
          "internalType": "uint256",
          "name": "escrowId",
          "type": "uint256"
        }
      ],
      "stateMutability": "payable",
      "type": "function"
    },
    {
      "inputs": [],
      "name": "owner",
      "outputs": [
        {
          "internalType": "address",
          "name": "",
          "type": "address"
        }
      ],
      "stateMutability": "view",
      "type": "function"
    },
    {
      "inputs": [
        {
          "internalType": "uint256",
          "name": "escrowId",
          "type": "uint256"
        }
      ],
      "name": "refundEscrow",
      "outputs": [],
      "stateMutability": "nonpayable",
      "type": "function"
    },
    {
      "inputs": [
        {
          "internalType": "uint256",
          "name": "escrowId",
          "type": "uint256"
        }
      ],
      "name": "releaseEscrow",
      "outputs": [],
      "stateMutability": "nonpayable",
      "type": "function"
    },
    {
      "inputs": [],
      "name": "renounceOwnership",
      "outputs": [],
      "stateMutability": "nonpayable",
      "type": "function"
    },
    {
      "inputs": [
        {
          "internalType": "address",
          "name": "newOwner",
          "type": "address"
        }
      ],
      "name": "transferOwnership",
      "outputs": [],
      "stateMutability": "nonpayable",
      "type": "function"
    }
  ],
  "bytecode": "0x6080604052600160025534801561001557600080fd5b50338061003c57604051631e4fbdf760e01b81526000600482015260240160405180910390fd5b6100458161004f565b506001805561009f565b600080546001600160a01b038381166001600160a01b0319831681178455604051919092169283917f8be0079c531659141344cd1fd0a4f28419497f9722a3daafe3b4186f6b6457e09190a35050565b610e23806100ae6000396000f3fe60806040526004361061009c5760003560e01c80638da5cb5b116100645780638da5cb5b146101d4578063cd5e18be146101fc578063ed6531641461021c578063ef9c71021461023c578063f2fde38b1461025d578063f56f48f21461027d57600080fd5b8063012f52ee146100a157806330c1ebfd1461013d578063345460cd1461015f578063356f9dfd1461019f578063715018a6146101bf575b600080fd5b3480156100ad57600080fd5b5061011f6100bc366004610c16565b6003602081905260009182526040909120805460018201546002830154938301546004840154600585015460068601546007909601546001600160a01b03958616979486169694909516949293919260ff91821692918181169161010090041689565b60405161013499989796959493929190610c67565b60405180910390f35b34801561014957600080fd5b5061015d610158366004610c16565b610294565b005b34801561016b57600080fd5b5061019261017a366004610c16565b60009081526003602052604090206005015460ff1690565b6040516101349190610cc6565b3480156101ab57600080fd5b5061015d6101ba366004610c16565b610360565b3480156101cb57600080fd5b5061015d61058b565b3480156101e057600080fd5b506000546040516001600160a01b039091168152602001610134565b34801561020857600080fd5b5061015d610217366004610c16565b61059f565b34801561022857600080fd5b5061015d610237366004610c16565b610682565b61024f61024a366004610cf6565b6106d8565b604051908152602001610134565b34801561026957600080fd5b5061015d610278366004610d38565b6109c4565b34801561028957600080fd5b5061024f62093a8081565b61029c6109ff565b600081815260036020526040812090600582015460ff1660038111156102c4576102c4610c2f565b146102ea5760405162461bcd60e51b81526004016102e190610d5a565b60405180910390fd5b60078101805461ff00191661010017905560405133815282907f38880d6051ef87694725e7a2c78b22f85c1be92c2129518d916aa0b500c25285906020015b60405180910390a2600781015460ff16801561034e57506007810154610100900460ff165b1561035c5761035c82610a2c565b5050565b610368610b9c565b600081815260036020526040812090600582015460ff16600381111561039057610390610c2f565b146103ad5760405162461bcd60e51b81526004016102e190610d5a565b62093a8081600601546103c09190610d9f565b4211806103d757506000546001600160a01b031633145b6104235760405162461bcd60e51b815260206004820181905260248201527f54696d656f7574206e6f742072656163686564206f72206e6f742061646d696e60448201526064016102e1565b60058101805460ff19166003179055805460048201546040516000926001600160a01b031691908381818185875af1925050503d8060008114610482576040519150601f19603f3d011682016040523d82523d6000602084013e610487565b606091505b50509050806104ce5760405162461bcd60e51b8152602060048201526013602482015272111a5b985c881c99599d5b990819985a5b1959606a1b60448201526064016102e1565b60028201546001830154600384015460405163a9059cbb60e01b81526001600160a01b039283166004820152602481019190915291169063a9059cbb906044016020604051808303816000875af115801561052d573d6000803e3d6000fd5b505050506040513d601f19601f820116820180604052508101906105519190610db2565b5060405183907f2babb5cd458b6d41108d6d793a75e29ca524e7caa20e2da6c994462010920a7290600090a2505061058860018055565b50565b6105936109ff565b61059d6000610bc6565b565b600081815260036020526040902060018101546001600160a01b031633146106095760405162461bcd60e51b815260206004820152601760248201527f4f6e6c792073656c6c65722063616e20636f6e6669726d00000000000000000060448201526064016102e1565b6000600582015460ff16600381111561062457610624610c2f565b146106415760405162461bcd60e51b81526004016102e190610d5a565b60078101805460ff1916600117905560405133815282907f38880d6051ef87694725e7a2c78b22f85c1be92c2129518d916aa0b500c2528590602001610329565b61068a6109ff565b600081815260036020526040812090600582015460ff1660038111156106b2576106b2610c2f565b146106cf5760405162461bcd60e51b81526004016102e190610d5a565b61035c82610a2c565b60006106e2610b9c565b8134146107315760405162461bcd60e51b815260206004820152601b60248201527f496e636f72726563742044696e617220616d6f756e742073656e74000000000060448201526064016102e1565b6000831161078d5760405162461bcd60e51b815260206004820152602360248201527f546f6b656e20616d6f756e74206d75737420626520677265617465722074686160448201526206e20360ec1b60648201526084016102e1565b6040516323b872dd60e01b81526001600160a01b038681166004830152306024830152604482018590528516906323b872dd906064016020604051808303816000875af11580156107e2573d6000803e3d6000fd5b505050506040513d601f19601f820116820180604052508101906108069190610db2565b506002805490600061081783610dd4565b919050559050604051806101200160405280336001600160a01b03168152602001866001600160a01b03168152602001856001600160a01b031681526020018481526020018381526020016000600381111561087557610875610c2f565b815242602080830191909152600060408084018290526060938401829052858252600380845291819020855181546001600160a01b03199081166001600160a01b0392831617835594870151600180840180548816928416929092179091559287015160028301805490961691161790935592840151828201556080840151600483015560a084015160058301805493949193909260ff199091169190849081111561092357610923610c2f565b021790555060c0820151600682015560e0820151600790910180546101009384015161ffff1990911692151561ff00191692909217911515909202179055604080513381526001600160a01b03871660208201529081018490526060810183905281907fb0d1014f51fe044faf4393f6cf445f0ee78b14237509213960d258e7814081799060800160405180910390a26109bc60018055565b949350505050565b6109cc6109ff565b6001600160a01b0381166109f657604051631e4fbdf760e01b8152600060048201526024016102e1565b61058881610bc6565b6000546001600160a01b0316331461059d5760405163118cdaa760e01b81523360048201526024016102e1565b60008181526003602052604080822060058101805460ff191660021790556001810154600482015492519193926001600160a01b03909116918381818185875af1925050503d8060008114610a9d576040519150601f19603f3d011682016040523d82523d6000602084013e610aa2565b606091505b5050905080610aeb5760405162461bcd60e51b8152602060048201526015602482015274111a5b985c881d1c985b9cd9995c8819985a5b1959605a1b60448201526064016102e1565b60028201548254600384015460405163a9059cbb60e01b81526001600160a01b039283166004820152602481019190915291169063a9059cbb906044016020604051808303816000875af1158015610b47573d6000803e3d6000fd5b505050506040513d601f19601f82011682018060405250810190610b6b9190610db2565b5060405183907f69833829d5691ae09424af7d16f73adf033451149ea9c2fc6fcb4c44108eef6790600090a2505050565b600260015403610bbf57604051633ee5aeb560e01b815260040160405180910390fd5b6002600155565b600080546001600160a01b038381166001600160a01b0319831681178455604051919092169283917f8be0079c531659141344cd1fd0a4f28419497f9722a3daafe3b4186f6b6457e09190a35050565b600060208284031215610c2857600080fd5b5035919050565b634e487b7160e01b600052602160045260246000fd5b60048110610c6357634e487b7160e01b600052602160045260246000fd5b9052565b6001600160a01b038a8116825289811660208301528816604082015260608101879052608081018690526101208101610ca360a0830187610c45565b60c082019490945291151560e08301521515610100909101529695505050505050565b60208101610cd48284610c45565b92915050565b80356001600160a01b0381168114610cf157600080fd5b919050565b60008060008060808587031215610d0c57600080fd5b610d1585610cda565b9350610d2360208601610cda565b93969395505050506040820135916060013590565b600060208284031215610d4a57600080fd5b610d5382610cda565b9392505050565b602080825260159082015274496e76616c696420657363726f772073746174757360581b604082015260600190565b634e487b7160e01b600052601160045260246000fd5b80820180821115610cd457610cd4610d89565b600060208284031215610dc457600080fd5b81518015158114610d5357600080fd5b600060018201610de657610de6610d89565b506001019056fea26469706673582212203e30a153e41577dd101a5b57c68b6317c3e22fe03f2be3c4488b8a1ebad374b264736f6c63430008140033",
  "linkReferences": {},
  "deployedLinkReferences": {}
}