{"contracts/RentalDistribution.sol":{"RentalDistribution":{"abi":[{"inputs":[],"stateMutability":"nonpayable","type":"constructor"},{"inputs":[{"internalType":"address","name":"owner","type":"address"}],"name":"OwnableInvalidOwner","type":"error"},{"inputs":[{"internalType":"address","name":"account","type":"address"}],"name":"OwnableUnauthorizedAccount","type":"error"},{"inputs":[],"name":"ReentrancyGuardReentrantCall","type":"error"},{"anonymous":false,"inputs":[{"indexed":true,"internalType":"address","name":"previousOwner","type":"address"},{"indexed":true,"internalType":"address","name":"newOwner","type":"address"}],"name":"OwnershipTransferred","type":"event"},{"anonymous":false,"inputs":[{"indexed":true,"internalType":"address","name":"propertyToken","type":"address"},{"indexed":true,"internalType":"address","name":"holder","type":"address"},{"indexed":false,"internalType":"uint256","name":"amount","type":"uint256"}],"name":"PayoutClaimed","type":"event"},{"anonymous":false,"inputs":[{"indexed":true,"internalType":"address","name":"propertyToken","type":"address"},{"indexed":false,"internalType":"uint256","name":"amount","type":"uint256"}],"name":"RentalIncomeDeposited","type":"event"},{"inputs":[{"internalType":"address","name":"propertyToken","type":"address"},{"internalType":"address[]","name":"holders","type":"address[]"}],"name":"batchDistribute","outputs":[],"stateMutability":"nonpayable","type":"function"},{"inputs":[{"internalType":"address","name":"propertyToken","type":"address"},{"internalType":"address","name":"holder","type":"address"}],"name":"calculateShare","outputs":[{"internalType":"uint256","name":"","type":"uint256"}],"stateMutability":"view","type":"function"},{"inputs":[{"internalType":"address","name":"propertyToken","type":"address"}],"name":"claimPayout","outputs":[],"stateMutability":"nonpayable","type":"function"},{"inputs":[{"internalType":"address","name":"propertyToken","type":"address"}],"name":"depositRentalIncome","outputs":[],"stateMutability":"payable","type":"function"},{"inputs":[],"name":"owner","outputs":[{"internalType":"address","name":"","type":"address"}],"stateMutability":"view","type":"function"},{"inputs":[{"internalType":"address","name":"","type":"address"},{"internalType":"uint256","name":"","type":"uint256"}],"name":"propertyPayouts","outputs":[{"internalType":"uint256","name":"amount","type":"uint256"},{"internalType":"uint256","name":"timestamp","type":"uint256"},{"internalType":"uint256","name":"totalTokensAtPayout","type":"uint256"}],"stateMutability":"view","type":"function"},{"inputs":[],"name":"renounceOwnership","outputs":[],"stateMutability":"nonpayable","type":"function"},{"inputs":[{"internalType":"address","name":"newOwner","type":"address"}],"name":"transferOwnership","outputs":[],"stateMutability":"nonpayable","type":"function"},{"inputs":[{"internalType":"address","name":"","type":"address"},{"internalType":"address","name":"","type":"address"}],"name":"userLastPayoutIndex","outputs":[{"internalType":"uint256","name":"","type":"uint256"}],"stateMutability":"view","type":"function"}],"evm":{"bytecode":{"linkReferences":{},"object":"608060405234801561001057600080fd5b50338061003757604051631e4fbdf760e01b81526000600482015260240160405180910390fd5b6100408161004a565b506001805561009a565b600080546001600160a01b038381166001600160a01b0319831681178455604051919092169283917f8be0079c531659141344cd1fd0a4f28419497f9722a3daafe3b4186f6b6457e09190a35050565b610b03806100a96000396000f3fe6080604052600436106100865760003560e01c8063824331711161005957806382433171146101155780638da5cb5b1461015b578063f2fde38b14610183578063f3648ae6146101a3578063fee88cb6146101c357600080fd5b806314844ad91461008b57806326046888146100ad5780635cd17eac146100ed578063715018a614610100575b600080fd5b34801561009757600080fd5b506100ab6100a636600461091e565b6101e3565b005b3480156100b957600080fd5b506100cd6100c83660046109a4565b610374565b604080519384526020840192909252908201526060015b60405180910390f35b6100ab6100fb3660046109ce565b6103b6565b34801561010c57600080fd5b506100ab610565565b34801561012157600080fd5b5061014d6101303660046109f0565b600360209081526000928352604080842090915290825290205481565b6040519081526020016100e4565b34801561016757600080fd5b506000546040516001600160a01b0390911681526020016100e4565b34801561018f57600080fd5b506100ab61019e3660046109ce565b610579565b3480156101af57600080fd5b506100ab6101be3660046109ce565b6105b7565b3480156101cf57600080fd5b5061014d6101de3660046109f0565b610715565b6101eb61085b565b6101f3610888565b60005b8181101561036557600083838381811061021257610212610a23565b905060200201602081019061022791906109ce565b905060006102358683610715565b90508015610350576001600160a01b038681166000908152600260209081526040808320546003835281842094871680855294909252808320919091555190919083908381818185875af1925050503d80600081146102b0576040519150601f19603f3d011682016040523d82523d6000602084013e6102b5565b606091505b50509050806103015760405162461bcd60e51b815260206004820152601360248201527210985d18da081c185e5bdd5d0819985a5b1959606a1b60448201526064015b60405180910390fd5b826001600160a01b0316876001600160a01b03167f16b63aea592f9ff2536669385de33b0f5bdf01b81d2602c102556e57e5374ac78460405161034691815260200190565b60405180910390a3505b5050808061035d90610a4f565b9150506101f6565b5061036f60018055565b505050565b6002602052816000526040600020818154811061039057600080fd5b600091825260209091206003909102018054600182015460029092015490935090915083565b6103be61085b565b6000341161040e5760405162461bcd60e51b815260206004820152601d60248201527f416d6f756e74206d7573742062652067726561746572207468616e203000000060448201526064016102f8565b6000816001600160a01b03166318160ddd6040518163ffffffff1660e01b8152600401602060405180830381865afa15801561044e573d6000803e3d6000fd5b505050506040513d601f19601f820116820180604052508101906104729190610a68565b9050600081116104cf5760405162461bcd60e51b815260206004820152602260248201527f4e6f20746f6b656e73206d696e74656420666f7220746869732070726f706572604482015261747960f01b60648201526084016102f8565b6001600160a01b0382166000818152600260208181526040808420815160608101835234808252428286019081528285018a8152845460018082018755958a529887902093516003909902909301978855519287019290925551949093019390935591519081527f42b23f13d11af29b5af4e608225ac33f38ae00fafb19bc5ea732693983f9e1cd910160405180910390a25050565b61056d61085b565b61057760006108b2565b565b61058161085b565b6001600160a01b0381166105ab57604051631e4fbdf760e01b8152600060048201526024016102f8565b6105b4816108b2565b50565b6105bf610888565b60006105cb8233610715565b9050600081116106135760405162461bcd60e51b81526020600482015260136024820152724e6f207061796f757420617661696c61626c6560681b60448201526064016102f8565b6001600160a01b03821660009081526002602090815260408083205460038352818420338086529352818420555183908381818185875af1925050503d806000811461067b576040519150601f19603f3d011682016040523d82523d6000602084013e610680565b606091505b50509050806106ca5760405162461bcd60e51b815260206004820152601660248201527514185e5bdd5d081d1c985b9cd9995c8819985a5b195960521b60448201526064016102f8565b60405182815233906001600160a01b038516907f16b63aea592f9ff2536669385de33b0f5bdf01b81d2602c102556e57e5374ac79060200160405180910390a350506105b460018055565b6001600160a01b03828116600081815260036020908152604080832094861680845294825280832054848452600290925280832090516370a0823160e01b815260048101959095529193849391929184916370a0823190602401602060405180830381865afa15801561078c573d6000803e3d6000fd5b505050506040513d601f19601f820116820180604052508101906107b09190610a68565b9050806000036107c7576000945050505050610855565b825b825481101561084d578281815481106107e4576107e4610a23565b9060005260206000209060030201600201548284838154811061080957610809610a23565b9060005260206000209060030201600001546108259190610a81565b61082f9190610a98565b6108399086610aba565b94508061084581610a4f565b9150506107c9565b509293505050505b92915050565b6000546001600160a01b031633146105775760405163118cdaa760e01b81523360048201526024016102f8565b6002600154036108ab57604051633ee5aeb560e01b815260040160405180910390fd5b6002600155565b600080546001600160a01b038381166001600160a01b0319831681178455604051919092169283917f8be0079c531659141344cd1fd0a4f28419497f9722a3daafe3b4186f6b6457e09190a35050565b80356001600160a01b038116811461091957600080fd5b919050565b60008060006040848603121561093357600080fd5b61093c84610902565b9250602084013567ffffffffffffffff8082111561095957600080fd5b818601915086601f83011261096d57600080fd5b81358181111561097c57600080fd5b8760208260051b850101111561099157600080fd5b6020830194508093505050509250925092565b600080604083850312156109b757600080fd5b6109c083610902565b946020939093013593505050565b6000602082840312156109e057600080fd5b6109e982610902565b9392505050565b60008060408385031215610a0357600080fd5b610a0c83610902565b9150610a1a60208401610902565b90509250929050565b634e487b7160e01b600052603260045260246000fd5b634e487b7160e01b600052601160045260246000fd5b600060018201610a6157610a61610a39565b5060010190565b600060208284031215610a7a57600080fd5b5051919050565b808202811582820484141761085557610855610a39565b600082610ab557634e487b7160e01b600052601260045260246000fd5b500490565b8082018082111561085557610855610a3956fea2646970667358221220adc8136f171a4c5f6d8cb11efbc9e6d585770ed9c83f67a370065cb4354f0a9764736f6c63430008140033","opcodes":"PUSH1 0x80 PUSH1 0x40 MSTORE CALLVALUE DUP1 ISZERO PUSH2 0x10 JUMPI PUSH1 0x0 DUP1 REVERT JUMPDEST POP CALLER DUP1 PUSH2 0x37 JUMPI PUSH1 0x40 MLOAD PUSH4 0x1E4FBDF7 PUSH1 0xE0 SHL DUP2 MSTORE PUSH1 0x0 PUSH1 0x4 DUP3 ADD MSTORE PUSH1 0x24 ADD PUSH1 0x40 MLOAD DUP1 SWAP2 SUB SWAP1 REVERT JUMPDEST PUSH2 0x40 DUP2 PUSH2 0x4A JUMP JUMPDEST POP PUSH1 0x1 DUP1 SSTORE PUSH2 0x9A JUMP JUMPDEST PUSH1 0x0 DUP1 SLOAD PUSH1 0x1 PUSH1 0x1 PUSH1 0xA0 SHL SUB DUP4 DUP2 AND PUSH1 0x1 PUSH1 0x1 PUSH1 0xA0 SHL SUB NOT DUP4 AND DUP2 OR DUP5 SSTORE PUSH1 0x40 MLOAD SWAP2 SWAP1 SWAP3 AND SWAP3 DUP4 SWAP2 PUSH32 0x8BE0079C531659141344CD1FD0A4F28419497F9722A3DAAFE3B4186F6B6457E0 SWAP2 SWAP1 LOG3 POP POP JUMP JUMPDEST PUSH2 0xB03 DUP1 PUSH2 0xA9 PUSH1 0x0 CODECOPY PUSH1 0x0 RETURN INVALID PUSH1 0x80 PUSH1 0x40 MSTORE PUSH1 0x4 CALLDATASIZE LT PUSH2 0x86 JUMPI PUSH1 0x0 CALLDATALOAD PUSH1 0xE0 SHR DUP1 PUSH4 0x82433171 GT PUSH2 0x59 JUMPI DUP1 PUSH4 0x82433171 EQ PUSH2 0x115 JUMPI DUP1 PUSH4 0x8DA5CB5B EQ PUSH2 0x15B JUMPI DUP1 PUSH4 0xF2FDE38B EQ PUSH2 0x183 JUMPI DUP1 PUSH4 0xF3648AE6 EQ PUSH2 0x1A3 JUMPI DUP1 PUSH4 0xFEE88CB6 EQ PUSH2 0x1C3 JUMPI PUSH1 0x0 DUP1 REVERT JUMPDEST DUP1 PUSH4 0x14844AD9 EQ PUSH2 0x8B JUMPI DUP1 PUSH4 0x26046888 EQ PUSH2 0xAD JUMPI DUP1 PUSH4 0x5CD17EAC EQ PUSH2 0xED JUMPI DUP1 PUSH4 0x715018A6 EQ PUSH2 0x100 JUMPI JUMPDEST PUSH1 0x0 DUP1 REVERT JUMPDEST CALLVALUE DUP1 ISZERO PUSH2 0x97 JUMPI PUSH1 0x0 DUP1 REVERT JUMPDEST POP PUSH2 0xAB PUSH2 0xA6 CALLDATASIZE PUSH1 0x4 PUSH2 0x91E JUMP JUMPDEST PUSH2 0x1E3 JUMP JUMPDEST STOP JUMPDEST CALLVALUE DUP1 ISZERO PUSH2 0xB9 JUMPI PUSH1 0x0 DUP1 REVERT JUMPDEST POP PUSH2 0xCD PUSH2 0xC8 CALLDATASIZE PUSH1 0x4 PUSH2 0x9A4 JUMP JUMPDEST PUSH2 0x374 JUMP JUMPDEST PUSH1 0x40 DUP1 MLOAD SWAP4 DUP5 MSTORE PUSH1 0x20 DUP5 ADD SWAP3 SWAP1 SWAP3 MSTORE SWAP1 DUP3 ADD MSTORE PUSH1 0x60 ADD JUMPDEST PUSH1 0x40 MLOAD DUP1 SWAP2 SUB SWAP1 RETURN JUMPDEST PUSH2 0xAB PUSH2 0xFB CALLDATASIZE PUSH1 0x4 PUSH2 0x9CE JUMP JUMPDEST PUSH2 0x3B6 JUMP JUMPDEST CALLVALUE DUP1 ISZERO PUSH2 0x10C JUMPI PUSH1 0x0 DUP1 REVERT JUMPDEST POP PUSH2 0xAB PUSH2 0x565 JUMP JUMPDEST CALLVALUE DUP1 ISZERO PUSH2 0x121 JUMPI PUSH1 0x0 DUP1 REVERT JUMPDEST POP PUSH2 0x14D PUSH2 0x130 CALLDATASIZE PUSH1 0x4 PUSH2 0x9F0 JUMP JUMPDEST PUSH1 0x3 PUSH1 0x20 SWAP1 DUP2 MSTORE PUSH1 0x0 SWAP3 DUP4 MSTORE PUSH1 0x40 DUP1 DUP5 KECCAK256 SWAP1 SWAP2 MSTORE SWAP1 DUP3 MSTORE SWAP1 KECCAK256 SLOAD DUP2 JUMP JUMPDEST PUSH1 0x40 MLOAD SWAP1 DUP2 MSTORE PUSH1 0x20 ADD PUSH2 0xE4 JUMP JUMPDEST CALLVALUE DUP1 ISZERO PUSH2 0x167 JUMPI PUSH1 0x0 DUP1 REVERT JUMPDEST POP PUSH1 0x0 SLOAD PUSH1 0x40 MLOAD PUSH1 0x1 PUSH1 0x1 PUSH1 0xA0 SHL SUB SWAP1 SWAP2 AND DUP2 MSTORE PUSH1 0x20 ADD PUSH2 0xE4 JUMP JUMPDEST CALLVALUE DUP1 ISZERO PUSH2 0x18F JUMPI PUSH1 0x0 DUP1 REVERT JUMPDEST POP PUSH2 0xAB PUSH2 0x19E CALLDATASIZE PUSH1 0x4 PUSH2 0x9CE JUMP JUMPDEST PUSH2 0x579 JUMP JUMPDEST CALLVALUE DUP1 ISZERO PUSH2 0x1AF JUMPI PUSH1 0x0 DUP1 REVERT JUMPDEST POP PUSH2 0xAB PUSH2 0x1BE CALLDATASIZE PUSH1 0x4 PUSH2 0x9CE JUMP JUMPDEST PUSH2 0x5B7 JUMP JUMPDEST CALLVALUE DUP1 ISZERO PUSH2 0x1CF JUMPI PUSH1 0x0 DUP1 REVERT JUMPDEST POP PUSH2 0x14D PUSH2 0x1DE CALLDATASIZE PUSH1 0x4 PUSH2 0x9F0 JUMP JUMPDEST PUSH2 0x715 JUMP JUMPDEST PUSH2 0x1EB PUSH2 0x85B JUMP JUMPDEST PUSH2 0x1F3 PUSH2 0x888 JUMP JUMPDEST PUSH1 0x0 JUMPDEST DUP2 DUP2 LT ISZERO PUSH2 0x365 JUMPI PUSH1 0x0 DUP4 DUP4 DUP4 DUP2 DUP2 LT PUSH2 0x212 JUMPI PUSH2 0x212 PUSH2 0xA23 JUMP JUMPDEST SWAP1 POP PUSH1 0x20 MUL ADD PUSH1 0x20 DUP2 ADD SWAP1 PUSH2 0x227 SWAP2 SWAP1 PUSH2 0x9CE JUMP JUMPDEST SWAP1 POP PUSH1 0x0 PUSH2 0x235 DUP7 DUP4 PUSH2 0x715 JUMP JUMPDEST SWAP1 POP DUP1 ISZERO PUSH2 0x350 JUMPI PUSH1 0x1 PUSH1 0x1 PUSH1 0xA0 SHL SUB DUP7 DUP2 AND PUSH1 0x0 SWAP1 DUP2 MSTORE PUSH1 0x2 PUSH1 0x20 SWAP1 DUP2 MSTORE PUSH1 0x40 DUP1 DUP4 KECCAK256 SLOAD PUSH1 0x3 DUP4 MSTORE DUP2 DUP5 KECCAK256 SWAP5 DUP8 AND DUP1 DUP6 MSTORE SWAP5 SWAP1 SWAP3 MSTORE DUP1 DUP4 KECCAK256 SWAP2 SWAP1 SWAP2 SSTORE MLOAD SWAP1 SWAP2 SWAP1 DUP4 SWAP1 DUP4 DUP2 DUP2 DUP2 DUP6 DUP8 GAS CALL SWAP3 POP POP POP RETURNDATASIZE DUP1 PUSH1 0x0 DUP2 EQ PUSH2 0x2B0 JUMPI PUSH1 0x40 MLOAD SWAP2 POP PUSH1 0x1F NOT PUSH1 0x3F RETURNDATASIZE ADD AND DUP3 ADD PUSH1 0x40 MSTORE RETURNDATASIZE DUP3 MSTORE RETURNDATASIZE PUSH1 0x0 PUSH1 0x20 DUP5 ADD RETURNDATACOPY PUSH2 0x2B5 JUMP JUMPDEST PUSH1 0x60 SWAP2 POP JUMPDEST POP POP SWAP1 POP DUP1 PUSH2 0x301 JUMPI PUSH1 0x40 MLOAD PUSH3 0x461BCD PUSH1 0xE5 SHL DUP2 MSTORE PUSH1 0x20 PUSH1 0x4 DUP3 ADD MSTORE PUSH1 0x13 PUSH1 0x24 DUP3 ADD MSTORE PUSH19 0x10985D18DA081C185E5BDD5D0819985A5B1959 PUSH1 0x6A SHL PUSH1 0x44 DUP3 ADD MSTORE PUSH1 0x64 ADD JUMPDEST PUSH1 0x40 MLOAD DUP1 SWAP2 SUB SWAP1 REVERT JUMPDEST DUP3 PUSH1 0x1 PUSH1 0x1 PUSH1 0xA0 SHL SUB AND DUP8 PUSH1 0x1 PUSH1 0x1 PUSH1 0xA0 SHL SUB AND PUSH32 0x16B63AEA592F9FF2536669385DE33B0F5BDF01B81D2602C102556E57E5374AC7 DUP5 PUSH1 0x40 MLOAD PUSH2 0x346 SWAP2 DUP2 MSTORE PUSH1 0x20 ADD SWAP1 JUMP JUMPDEST PUSH1 0x40 MLOAD DUP1 SWAP2 SUB SWAP1 LOG3 POP JUMPDEST POP POP DUP1 DUP1 PUSH2 0x35D SWAP1 PUSH2 0xA4F JUMP JUMPDEST SWAP2 POP POP PUSH2 0x1F6 JUMP JUMPDEST POP PUSH2 0x36F PUSH1 0x1 DUP1 SSTORE JUMP JUMPDEST POP POP POP JUMP JUMPDEST PUSH1 0x2 PUSH1 0x20 MSTORE DUP2 PUSH1 0x0 MSTORE PUSH1 0x40 PUSH1 0x0 KECCAK256 DUP2 DUP2 SLOAD DUP2 LT PUSH2 0x390 JUMPI PUSH1 0x0 DUP1 REVERT JUMPDEST PUSH1 0x0 SWAP2 DUP3 MSTORE PUSH1 0x20 SWAP1 SWAP2 KECCAK256 PUSH1 0x3 SWAP1 SWAP2 MUL ADD DUP1 SLOAD PUSH1 0x1 DUP3 ADD SLOAD PUSH1 0x2 SWAP1 SWAP3 ADD SLOAD SWAP1 SWAP4 POP SWAP1 SWAP2 POP DUP4 JUMP JUMPDEST PUSH2 0x3BE PUSH2 0x85B JUMP JUMPDEST PUSH1 0x0 CALLVALUE GT PUSH2 0x40E JUMPI PUSH1 0x40 MLOAD PUSH3 0x461BCD PUSH1 0xE5 SHL DUP2 MSTORE PUSH1 0x20 PUSH1 0x4 DUP3 ADD MSTORE PUSH1 0x1D PUSH1 0x24 DUP3 ADD MSTORE PUSH32 0x416D6F756E74206D7573742062652067726561746572207468616E2030000000 PUSH1 0x44 DUP3 ADD MSTORE PUSH1 0x64 ADD PUSH2 0x2F8 JUMP JUMPDEST PUSH1 0x0 DUP2 PUSH1 0x1 PUSH1 0x1 PUSH1 0xA0 SHL SUB AND PUSH4 0x18160DDD PUSH1 0x40 MLOAD DUP2 PUSH4 0xFFFFFFFF AND PUSH1 0xE0 SHL DUP2 MSTORE PUSH1 0x4 ADD PUSH1 0x20 PUSH1 0x40 MLOAD DUP1 DUP4 SUB DUP2 DUP7 GAS STATICCALL ISZERO DUP1 ISZERO PUSH2 0x44E JUMPI RETURNDATASIZE PUSH1 0x0 DUP1 RETURNDATACOPY RETURNDATASIZE PUSH1 0x0 REVERT JUMPDEST POP POP POP POP PUSH1 0x40 MLOAD RETURNDATASIZE PUSH1 0x1F NOT PUSH1 0x1F DUP3 ADD AND DUP3 ADD DUP1 PUSH1 0x40 MSTORE POP DUP2 ADD SWAP1 PUSH2 0x472 SWAP2 SWAP1 PUSH2 0xA68 JUMP JUMPDEST SWAP1 POP PUSH1 0x0 DUP2 GT PUSH2 0x4CF JUMPI PUSH1 0x40 MLOAD PUSH3 0x461BCD PUSH1 0xE5 SHL DUP2 MSTORE PUSH1 0x20 PUSH1 0x4 DUP3 ADD MSTORE PUSH1 0x22 PUSH1 0x24 DUP3 ADD MSTORE PUSH32 0x4E6F20746F6B656E73206D696E74656420666F7220746869732070726F706572 PUSH1 0x44 DUP3 ADD MSTORE PUSH2 0x7479 PUSH1 0xF0 SHL PUSH1 0x64 DUP3 ADD MSTORE PUSH1 0x84 ADD PUSH2 0x2F8 JUMP JUMPDEST PUSH1 0x1 PUSH1 0x1 PUSH1 0xA0 SHL SUB DUP3 AND PUSH1 0x0 DUP2 DUP2 MSTORE PUSH1 0x2 PUSH1 0x20 DUP2 DUP2 MSTORE PUSH1 0x40 DUP1 DUP5 KECCAK256 DUP2 MLOAD PUSH1 0x60 DUP2 ADD DUP4 MSTORE CALLVALUE DUP1 DUP3 MSTORE TIMESTAMP DUP3 DUP7 ADD SWAP1 DUP2 MSTORE DUP3 DUP6 ADD DUP11 DUP2 MSTORE DUP5 SLOAD PUSH1 0x1 DUP1 DUP3 ADD DUP8 SSTORE SWAP6 DUP11 MSTORE SWAP9 DUP8 SWAP1 KECCAK256 SWAP4 MLOAD PUSH1 0x3 SWAP1 SWAP10 MUL SWAP1 SWAP4 ADD SWAP8 DUP9 SSTORE MLOAD SWAP3 DUP8 ADD SWAP3 SWAP1 SWAP3 SSTORE MLOAD SWAP5 SWAP1 SWAP4 ADD SWAP4 SWAP1 SWAP4 SSTORE SWAP2 MLOAD SWAP1 DUP2 MSTORE PUSH32 0x42B23F13D11AF29B5AF4E608225AC33F38AE00FAFB19BC5EA732693983F9E1CD SWAP2 ADD PUSH1 0x40 MLOAD DUP1 SWAP2 SUB SWAP1 LOG2 POP POP JUMP JUMPDEST PUSH2 0x56D PUSH2 0x85B JUMP JUMPDEST PUSH2 0x577 PUSH1 0x0 PUSH2 0x8B2 JUMP JUMPDEST JUMP JUMPDEST PUSH2 0x581 PUSH2 0x85B JUMP JUMPDEST PUSH1 0x1 PUSH1 0x1 PUSH1 0xA0 SHL SUB DUP2 AND PUSH2 0x5AB JUMPI PUSH1 0x40 MLOAD PUSH4 0x1E4FBDF7 PUSH1 0xE0 SHL DUP2 MSTORE PUSH1 0x0 PUSH1 0x4 DUP3 ADD MSTORE PUSH1 0x24 ADD PUSH2 0x2F8 JUMP JUMPDEST PUSH2 0x5B4 DUP2 PUSH2 0x8B2 JUMP JUMPDEST POP JUMP JUMPDEST PUSH2 0x5BF PUSH2 0x888 JUMP JUMPDEST PUSH1 0x0 PUSH2 0x5CB DUP3 CALLER PUSH2 0x715 JUMP JUMPDEST SWAP1 POP PUSH1 0x0 DUP2 GT PUSH2 0x613 JUMPI PUSH1 0x40 MLOAD PUSH3 0x461BCD PUSH1 0xE5 SHL DUP2 MSTORE PUSH1 0x20 PUSH1 0x4 DUP3 ADD MSTORE PUSH1 0x13 PUSH1 0x24 DUP3 ADD MSTORE PUSH19 0x4E6F207061796F757420617661696C61626C65 PUSH1 0x68 SHL PUSH1 0x44 DUP3 ADD MSTORE PUSH1 0x64 ADD PUSH2 0x2F8 JUMP JUMPDEST PUSH1 0x1 PUSH1 0x1 PUSH1 0xA0 SHL SUB DUP3 AND PUSH1 0x0 SWAP1 DUP2 MSTORE PUSH1 0x2 PUSH1 0x20 SWAP1 DUP2 MSTORE PUSH1 0x40 DUP1 DUP4 KECCAK256 SLOAD PUSH1 0x3 DUP4 MSTORE DUP2 DUP5 KECCAK256 CALLER DUP1 DUP7 MSTORE SWAP4 MSTORE DUP2 DUP5 KECCAK256 SSTORE MLOAD DUP4 SWAP1 DUP4 DUP2 DUP2 DUP2 DUP6 DUP8 GAS CALL SWAP3 POP POP POP RETURNDATASIZE DUP1 PUSH1 0x0 DUP2 EQ PUSH2 0x67B JUMPI PUSH1 0x40 MLOAD SWAP2 POP PUSH1 0x1F NOT PUSH1 0x3F RETURNDATASIZE ADD AND DUP3 ADD PUSH1 0x40 MSTORE RETURNDATASIZE DUP3 MSTORE RETURNDATASIZE PUSH1 0x0 PUSH1 0x20 DUP5 ADD RETURNDATACOPY PUSH2 0x680 JUMP JUMPDEST PUSH1 0x60 SWAP2 POP JUMPDEST POP POP SWAP1 POP DUP1 PUSH2 0x6CA JUMPI PUSH1 0x40 MLOAD PUSH3 0x461BCD PUSH1 0xE5 SHL DUP2 MSTORE PUSH1 0x20 PUSH1 0x4 DUP3 ADD MSTORE PUSH1 0x16 PUSH1 0x24 DUP3 ADD MSTORE PUSH22 0x14185E5BDD5D081D1C985B9CD9995C8819985A5B1959 PUSH1 0x52 SHL PUSH1 0x44 DUP3 ADD MSTORE PUSH1 0x64 ADD PUSH2 0x2F8 JUMP JUMPDEST PUSH1 0x40 MLOAD DUP3 DUP2 MSTORE CALLER SWAP1 PUSH1 0x1 PUSH1 0x1 PUSH1 0xA0 SHL SUB DUP6 AND SWAP1 PUSH32 0x16B63AEA592F9FF2536669385DE33B0F5BDF01B81D2602C102556E57E5374AC7 SWAP1 PUSH1 0x20 ADD PUSH1 0x40 MLOAD DUP1 SWAP2 SUB SWAP1 LOG3 POP POP PUSH2 0x5B4 PUSH1 0x1 DUP1 SSTORE JUMP JUMPDEST PUSH1 0x1 PUSH1 0x1 PUSH1 0xA0 SHL SUB DUP3 DUP2 AND PUSH1 0x0 DUP2 DUP2 MSTORE PUSH1 0x3 PUSH1 0x20 SWAP1 DUP2 MSTORE PUSH1 0x40 DUP1 DUP4 KECCAK256 SWAP5 DUP7 AND DUP1 DUP5 MSTORE SWAP5 DUP3 MSTORE DUP1 DUP4 KECCAK256 SLOAD DUP5 DUP5 MSTORE PUSH1 0x2 SWAP1 SWAP3 MSTORE DUP1 DUP4 KECCAK256 SWAP1 MLOAD PUSH4 0x70A08231 PUSH1 0xE0 SHL DUP2 MSTORE PUSH1 0x4 DUP2 ADD SWAP6 SWAP1 SWAP6 MSTORE SWAP2 SWAP4 DUP5 SWAP4 SWAP2 SWAP3 SWAP2 DUP5 SWAP2 PUSH4 0x70A08231 SWAP1 PUSH1 0x24 ADD PUSH1 0x20 PUSH1 0x40 MLOAD DUP1 DUP4 SUB DUP2 DUP7 GAS STATICCALL ISZERO DUP1 ISZERO PUSH2 0x78C JUMPI RETURNDATASIZE PUSH1 0x0 DUP1 RETURNDATACOPY RETURNDATASIZE PUSH1 0x0 REVERT JUMPDEST POP POP POP POP PUSH1 0x40 MLOAD RETURNDATASIZE PUSH1 0x1F NOT PUSH1 0x1F DUP3 ADD AND DUP3 ADD DUP1 PUSH1 0x40 MSTORE POP DUP2 ADD SWAP1 PUSH2 0x7B0 SWAP2 SWAP1 PUSH2 0xA68 JUMP JUMPDEST SWAP1 POP DUP1 PUSH1 0x0 SUB PUSH2 0x7C7 JUMPI PUSH1 0x0 SWAP5 POP POP POP POP POP PUSH2 0x855 JUMP JUMPDEST DUP3 JUMPDEST DUP3 SLOAD DUP2 LT ISZERO PUSH2 0x84D JUMPI DUP3 DUP2 DUP2 SLOAD DUP2 LT PUSH2 0x7E4 JUMPI PUSH2 0x7E4 PUSH2 0xA23 JUMP JUMPDEST SWAP1 PUSH1 0x0 MSTORE PUSH1 0x20 PUSH1 0x0 KECCAK256 SWAP1 PUSH1 0x3 MUL ADD PUSH1 0x2 ADD SLOAD DUP3 DUP5 DUP4 DUP2 SLOAD DUP2 LT PUSH2 0x809 JUMPI PUSH2 0x809 PUSH2 0xA23 JUMP JUMPDEST SWAP1 PUSH1 0x0 MSTORE PUSH1 0x20 PUSH1 0x0 KECCAK256 SWAP1 PUSH1 0x3 MUL ADD PUSH1 0x0 ADD SLOAD PUSH2 0x825 SWAP2 SWAP1 PUSH2 0xA81 JUMP JUMPDEST PUSH2 0x82F SWAP2 SWAP1 PUSH2 0xA98 JUMP JUMPDEST PUSH2 0x839 SWAP1 DUP7 PUSH2 0xABA JUMP JUMPDEST SWAP5 POP DUP1 PUSH2 0x845 DUP2 PUSH2 0xA4F JUMP JUMPDEST SWAP2 POP POP PUSH2 0x7C9 JUMP JUMPDEST POP SWAP3 SWAP4 POP POP POP POP JUMPDEST SWAP3 SWAP2 POP POP JUMP JUMPDEST PUSH1 0x0 SLOAD PUSH1 0x1 PUSH1 0x1 PUSH1 0xA0 SHL SUB AND CALLER EQ PUSH2 0x577 JUMPI PUSH1 0x40 MLOAD PUSH4 0x118CDAA7 PUSH1 0xE0 SHL DUP2 MSTORE CALLER PUSH1 0x4 DUP3 ADD MSTORE PUSH1 0x24 ADD PUSH2 0x2F8 JUMP JUMPDEST PUSH1 0x2 PUSH1 0x1 SLOAD SUB PUSH2 0x8AB JUMPI PUSH1 0x40 MLOAD PUSH4 0x3EE5AEB5 PUSH1 0xE0 SHL DUP2 MSTORE PUSH1 0x4 ADD PUSH1 0x40 MLOAD DUP1 SWAP2 SUB SWAP1 REVERT JUMPDEST PUSH1 0x2 PUSH1 0x1 SSTORE JUMP JUMPDEST PUSH1 0x0 DUP1 SLOAD PUSH1 0x1 PUSH1 0x1 PUSH1 0xA0 SHL SUB DUP4 DUP2 AND PUSH1 0x1 PUSH1 0x1 PUSH1 0xA0 SHL SUB NOT DUP4 AND DUP2 OR DUP5 SSTORE PUSH1 0x40 MLOAD SWAP2 SWAP1 SWAP3 AND SWAP3 DUP4 SWAP2 PUSH32 0x8BE0079C531659141344CD1FD0A4F28419497F9722A3DAAFE3B4186F6B6457E0 SWAP2 SWAP1 LOG3 POP POP JUMP JUMPDEST DUP1 CALLDATALOAD PUSH1 0x1 PUSH1 0x1 PUSH1 0xA0 SHL SUB DUP2 AND DUP2 EQ PUSH2 0x919 JUMPI PUSH1 0x0 DUP1 REVERT JUMPDEST SWAP2 SWAP1 POP JUMP JUMPDEST PUSH1 0x0 DUP1 PUSH1 0x0 PUSH1 0x40 DUP5 DUP7 SUB SLT ISZERO PUSH2 0x933 JUMPI PUSH1 0x0 DUP1 REVERT JUMPDEST PUSH2 0x93C DUP5 PUSH2 0x902 JUMP JUMPDEST SWAP3 POP PUSH1 0x20 DUP5 ADD CALLDATALOAD PUSH8 0xFFFFFFFFFFFFFFFF DUP1 DUP3 GT ISZERO PUSH2 0x959 JUMPI PUSH1 0x0 DUP1 REVERT JUMPDEST DUP2 DUP7 ADD SWAP2 POP DUP7 PUSH1 0x1F DUP4 ADD SLT PUSH2 0x96D JUMPI PUSH1 0x0 DUP1 REVERT JUMPDEST DUP2 CALLDATALOAD DUP2 DUP2 GT ISZERO PUSH2 0x97C JUMPI PUSH1 0x0 DUP1 REVERT JUMPDEST DUP8 PUSH1 0x20 DUP3 PUSH1 0x5 SHL DUP6 ADD ADD GT ISZERO PUSH2 0x991 JUMPI PUSH1 0x0 DUP1 REVERT JUMPDEST PUSH1 0x20 DUP4 ADD SWAP5 POP DUP1 SWAP4 POP POP POP POP SWAP3 POP SWAP3 POP SWAP3 JUMP JUMPDEST PUSH1 0x0 DUP1 PUSH1 0x40 DUP4 DUP6 SUB SLT ISZERO PUSH2 0x9B7 JUMPI PUSH1 0x0 DUP1 REVERT JUMPDEST PUSH2 0x9C0 DUP4 PUSH2 0x902 JUMP JUMPDEST SWAP5 PUSH1 0x20 SWAP4 SWAP1 SWAP4 ADD CALLDATALOAD SWAP4 POP POP POP JUMP JUMPDEST PUSH1 0x0 PUSH1 0x20 DUP3 DUP5 SUB SLT ISZERO PUSH2 0x9E0 JUMPI PUSH1 0x0 DUP1 REVERT JUMPDEST PUSH2 0x9E9 DUP3 PUSH2 0x902 JUMP JUMPDEST SWAP4 SWAP3 POP POP POP JUMP JUMPDEST PUSH1 0x0 DUP1 PUSH1 0x40 DUP4 DUP6 SUB SLT ISZERO PUSH2 0xA03 JUMPI PUSH1 0x0 DUP1 REVERT JUMPDEST PUSH2 0xA0C DUP4 PUSH2 0x902 JUMP JUMPDEST SWAP2 POP PUSH2 0xA1A PUSH1 0x20 DUP5 ADD PUSH2 0x902 JUMP JUMPDEST SWAP1 POP SWAP3 POP SWAP3 SWAP1 POP JUMP JUMPDEST PUSH4 0x4E487B71 PUSH1 0xE0 SHL PUSH1 0x0 MSTORE PUSH1 0x32 PUSH1 0x4 MSTORE PUSH1 0x24 PUSH1 0x0 REVERT JUMPDEST PUSH4 0x4E487B71 PUSH1 0xE0 SHL PUSH1 0x0 MSTORE PUSH1 0x11 PUSH1 0x4 MSTORE PUSH1 0x24 PUSH1 0x0 REVERT JUMPDEST PUSH1 0x0 PUSH1 0x1 DUP3 ADD PUSH2 0xA61 JUMPI PUSH2 0xA61 PUSH2 0xA39 JUMP JUMPDEST POP PUSH1 0x1 ADD SWAP1 JUMP JUMPDEST PUSH1 0x0 PUSH1 0x20 DUP3 DUP5 SUB SLT ISZERO PUSH2 0xA7A JUMPI PUSH1 0x0 DUP1 REVERT JUMPDEST POP MLOAD SWAP2 SWAP1 POP JUMP JUMPDEST DUP1 DUP3 MUL DUP2 ISZERO DUP3 DUP3 DIV DUP5 EQ OR PUSH2 0x855 JUMPI PUSH2 0x855 PUSH2 0xA39 JUMP JUMPDEST PUSH1 0x0 DUP3 PUSH2 0xAB5 JUMPI PUSH4 0x4E487B71 PUSH1 0xE0 SHL PUSH1 0x0 MSTORE PUSH1 0x12 PUSH1 0x4 MSTORE PUSH1 0x24 PUSH1 0x0 REVERT JUMPDEST POP DIV SWAP1 JUMP JUMPDEST DUP1 DUP3 ADD DUP1 DUP3 GT ISZERO PUSH2 0x855 JUMPI PUSH2 0x855 PUSH2 0xA39 JUMP INVALID LOG2 PUSH5 0x6970667358 0x22 SLT KECCAK256 0xAD 0xC8 SGT PUSH16 0x171A4C5F6D8CB11EFBC9E6D585770ED9 0xC8 EXTCODEHASH PUSH8 0xA370065CB4354F0A SWAP8 PUSH5 0x736F6C6343 STOP ADDMOD EQ STOP CALLER "},"methodIdentifiers":{"batchDistribute(address,address[])":"14844ad9","calculateShare(address,address)":"fee88cb6","claimPayout(address)":"f3648ae6","depositRentalIncome(address)":"5cd17eac","owner()":"8da5cb5b","propertyPayouts(address,uint256)":"26046888","renounceOwnership()":"715018a6","transferOwnership(address)":"f2fde38b","userLastPayoutIndex(address,address)":"82433171"}}}}}