{
  "_format": "hh-sol-artifact-1",
  "contractName": "KortanaBridge",
  "sourceName": "contracts/KortanaBridge.sol",
  "abi": [
    {
      "inputs": [],
      "stateMutability": "nonpayable",
      "type": "constructor"
    },
    {
      "inputs": [
        {
          "internalType": "address",
          "name": "owner",
          "type": "address"
        }
      ],
      "name": "OwnableInvalidOwner",
      "type": "error"
    },
    {
      "inputs": [
        {
          "internalType": "address",
          "name": "account",
          "type": "address"
        }
      ],
      "name": "OwnableUnauthorizedAccount",
      "type": "error"
    },
    {
      "anonymous": false,
      "inputs": [
        {
          "indexed": true,
          "internalType": "address",
          "name": "previousOwner",
          "type": "address"
        },
        {
          "indexed": true,
          "internalType": "address",
          "name": "newOwner",
          "type": "address"
        }
      ],
      "name": "OwnershipTransferred",
      "type": "event"
    },
    {
      "anonymous": false,
      "inputs": [
        {
          "indexed": true,
          "internalType": "address",
          "name": "user",
          "type": "address"
        },
        {
          "indexed": true,
          "internalType": "address",
          "name": "token",
          "type": "address"
        },
        {
          "indexed": false,
          "internalType": "uint256",
          "name": "amount",
          "type": "uint256"
        },
        {
          "indexed": false,
          "internalType": "uint256",
          "name": "targetChainId",
          "type": "uint256"
        },
        {
          "indexed": false,
          "internalType": "uint256",
          "name": "timestamp",
          "type": "uint256"
        }
      ],
      "name": "PulseInitiated",
      "type": "event"
    },
    {
      "inputs": [
        {
          "internalType": "uint256",
          "name": "targetChainId",
          "type": "uint256"
        }
      ],
      "name": "bridgeNative",
      "outputs": [],
      "stateMutability": "payable",
      "type": "function"
    },
    {
      "inputs": [
        {
          "internalType": "address",
          "name": "token",
          "type": "address"
        },
        {
          "internalType": "uint256",
          "name": "amount",
          "type": "uint256"
        },
        {
          "internalType": "uint256",
          "name": "targetChainId",
          "type": "uint256"
        }
      ],
      "name": "bridgeToken",
      "outputs": [],
      "stateMutability": "nonpayable",
      "type": "function"
    },
    {
      "inputs": [
        {
          "internalType": "address",
          "name": "token",
          "type": "address"
        },
        {
          "internalType": "uint256",
          "name": "amount",
          "type": "uint256"
        }
      ],
      "name": "emergencyWithdraw",
      "outputs": [],
      "stateMutability": "nonpayable",
      "type": "function"
    },
    {
      "inputs": [],
      "name": "owner",
      "outputs": [
        {
          "internalType": "address",
          "name": "",
          "type": "address"
        }
      ],
      "stateMutability": "view",
      "type": "function"
    },
    {
      "inputs": [],
      "name": "renounceOwnership",
      "outputs": [],
      "stateMutability": "nonpayable",
      "type": "function"
    },
    {
      "inputs": [
        {
          "internalType": "address",
          "name": "newOwner",
          "type": "address"
        }
      ],
      "name": "transferOwnership",
      "outputs": [],
      "stateMutability": "nonpayable",
      "type": "function"
    }
  ],
  "bytecode": "0x608060405234801561001057600080fd5b5033600073ffffffffffffffffffffffffffffffffffffffff168173ffffffffffffffffffffffffffffffffffffffff16036100845760006040517f1e4fbdf700000000000000000000000000000000000000000000000000000000815260040161007b919061019e565b60405180910390fd5b6100938161009960201b60201c565b506101b9565b60008060009054906101000a900473ffffffffffffffffffffffffffffffffffffffff169050816000806101000a81548173ffffffffffffffffffffffffffffffffffffffff021916908373ffffffffffffffffffffffffffffffffffffffff1602179055508173ffffffffffffffffffffffffffffffffffffffff168173ffffffffffffffffffffffffffffffffffffffff167f8be0079c531659141344cd1fd0a4f28419497f9722a3daafe3b4186f6b6457e060405160405180910390a35050565b600073ffffffffffffffffffffffffffffffffffffffff82169050919050565b60006101888261015d565b9050919050565b6101988161017d565b82525050565b60006020820190506101b3600083018461018f565b92915050565b6109b3806101c86000396000f3fe6080604052600436106100555760003560e01c8063715018a61461005a5780638da5cb5b1461007157806395ccea671461009c578063bbe4b704146100c5578063d5e420f8146100e1578063f2fde38b1461010a575b600080fd5b34801561006657600080fd5b5061006f610133565b005b34801561007d57600080fd5b50610086610147565b6040516100939190610686565b60405180910390f35b3480156100a857600080fd5b506100c360048036038101906100be9190610708565b610170565b005b6100df60048036038101906100da9190610748565b61028a565b005b3480156100ed57600080fd5b5061010860048036038101906101039190610775565b61033a565b005b34801561011657600080fd5b50610131600480360381019061012c91906107c8565b61046c565b005b61013b6104f2565b6101456000610579565b565b60008060009054906101000a900473ffffffffffffffffffffffffffffffffffffffff16905090565b6101786104f2565b600073ffffffffffffffffffffffffffffffffffffffff168273ffffffffffffffffffffffffffffffffffffffff16036101ff576101b4610147565b73ffffffffffffffffffffffffffffffffffffffff166108fc829081150290604051600060405180830381858888f193505050501580156101f9573d6000803e3d6000fd5b50610286565b8173ffffffffffffffffffffffffffffffffffffffff1663a9059cbb610223610147565b836040518363ffffffff1660e01b8152600401610241929190610804565b6020604051808303816000875af1158015610260573d6000803e3d6000fd5b505050506040513d601f19601f820116820180604052508101906102849190610865565b505b5050565b600034116102cd576040517f08c379a00000000000000000000000000000000000000000000000000000000081526004016102c4906108ef565b60405180910390fd5b600073ffffffffffffffffffffffffffffffffffffffff163373ffffffffffffffffffffffffffffffffffffffff167fa37a4c506b8877849d7d635d45ae4b9628db520dbf8fa2a5a85f9d7754ee427634844260405161032f9392919061090f565b60405180910390a350565b6000821161037d576040517f08c379a0000000000000000000000000000000000000000000000000000000008152600401610374906108ef565b60405180910390fd5b8273ffffffffffffffffffffffffffffffffffffffff166323b872dd3330856040518463ffffffff1660e01b81526004016103ba93929190610946565b6020604051808303816000875af11580156103d9573d6000803e3d6000fd5b505050506040513d601f19601f820116820180604052508101906103fd9190610865565b508273ffffffffffffffffffffffffffffffffffffffff163373ffffffffffffffffffffffffffffffffffffffff167fa37a4c506b8877849d7d635d45ae4b9628db520dbf8fa2a5a85f9d7754ee427684844260405161045f9392919061090f565b60405180910390a3505050565b6104746104f2565b600073ffffffffffffffffffffffffffffffffffffffff168173ffffffffffffffffffffffffffffffffffffffff16036104e65760006040517f1e4fbdf70000000000000000000000000000000000000000000000000000000081526004016104dd9190610686565b60405180910390fd5b6104ef81610579565b50565b6104fa61063d565b73ffffffffffffffffffffffffffffffffffffffff16610518610147565b73ffffffffffffffffffffffffffffffffffffffff16146105775761053b61063d565b6040517f118cdaa700000000000000000000000000000000000000000000000000000000815260040161056e9190610686565b60405180910390fd5b565b60008060009054906101000a900473ffffffffffffffffffffffffffffffffffffffff169050816000806101000a81548173ffffffffffffffffffffffffffffffffffffffff021916908373ffffffffffffffffffffffffffffffffffffffff1602179055508173ffffffffffffffffffffffffffffffffffffffff168173ffffffffffffffffffffffffffffffffffffffff167f8be0079c531659141344cd1fd0a4f28419497f9722a3daafe3b4186f6b6457e060405160405180910390a35050565b600033905090565b600073ffffffffffffffffffffffffffffffffffffffff82169050919050565b600061067082610645565b9050919050565b61068081610665565b82525050565b600060208201905061069b6000830184610677565b92915050565b600080fd5b6106af81610665565b81146106ba57600080fd5b50565b6000813590506106cc816106a6565b92915050565b6000819050919050565b6106e5816106d2565b81146106f057600080fd5b50565b600081359050610702816106dc565b92915050565b6000806040838503121561071f5761071e6106a1565b5b600061072d858286016106bd565b925050602061073e858286016106f3565b9150509250929050565b60006020828403121561075e5761075d6106a1565b5b600061076c848285016106f3565b91505092915050565b60008060006060848603121561078e5761078d6106a1565b5b600061079c868287016106bd565b93505060206107ad868287016106f3565b92505060406107be868287016106f3565b9150509250925092565b6000602082840312156107de576107dd6106a1565b5b60006107ec848285016106bd565b91505092915050565b6107fe816106d2565b82525050565b60006040820190506108196000830185610677565b61082660208301846107f5565b9392505050565b60008115159050919050565b6108428161082d565b811461084d57600080fd5b50565b60008151905061085f81610839565b92915050565b60006020828403121561087b5761087a6106a1565b5b600061088984828501610850565b91505092915050565b600082825260208201905092915050565b7f416d6f756e74206d757374206265203e20300000000000000000000000000000600082015250565b60006108d9601283610892565b91506108e4826108a3565b602082019050919050565b60006020820190508181036000830152610908816108cc565b9050919050565b600060608201905061092460008301866107f5565b61093160208301856107f5565b61093e60408301846107f5565b949350505050565b600060608201905061095b6000830186610677565b6109686020830185610677565b61097560408301846107f5565b94935050505056fea264697066735822122005b8749cc371b38c7a16d42254b341ecdb41c818a6a6ebae3fe7fca711fd518864736f6c63430008140033",
  "linkReferences": {},
  "deployedLinkReferences": {}
}