{
  "_format": "hh-sol-artifact-1",
  "contractName": "RentalDistribution",
  "sourceName": "contracts/RentalDistribution.sol",
  "abi": [
    {
      "inputs": [],
      "stateMutability": "nonpayable",
      "type": "constructor"
    },
    {
      "inputs": [
        {
          "internalType": "address",
          "name": "owner",
          "type": "address"
        }
      ],
      "name": "OwnableInvalidOwner",
      "type": "error"
    },
    {
      "inputs": [
        {
          "internalType": "address",
          "name": "account",
          "type": "address"
        }
      ],
      "name": "OwnableUnauthorizedAccount",
      "type": "error"
    },
    {
      "inputs": [],
      "name": "ReentrancyGuardReentrantCall",
      "type": "error"
    },
    {
      "anonymous": false,
      "inputs": [
        {
          "indexed": true,
          "internalType": "address",
          "name": "previousOwner",
          "type": "address"
        },
        {
          "indexed": true,
          "internalType": "address",
          "name": "newOwner",
          "type": "address"
        }
      ],
      "name": "OwnershipTransferred",
      "type": "event"
    },
    {
      "anonymous": false,
      "inputs": [
        {
          "indexed": true,
          "internalType": "address",
          "name": "propertyToken",
          "type": "address"
        },
        {
          "indexed": true,
          "internalType": "address",
          "name": "holder",
          "type": "address"
        },
        {
          "indexed": false,
          "internalType": "uint256",
          "name": "amount",
          "type": "uint256"
        }
      ],
      "name": "PayoutClaimed",
      "type": "event"
    },
    {
      "anonymous": false,
      "inputs": [
        {
          "indexed": true,
          "internalType": "address",
          "name": "propertyToken",
          "type": "address"
        },
        {
          "indexed": false,
          "internalType": "uint256",
          "name": "amount",
          "type": "uint256"
        }
      ],
      "name": "RentalIncomeDeposited",
      "type": "event"
    },
    {
      "inputs": [
        {
          "internalType": "address",
          "name": "propertyToken",
          "type": "address"
        },
        {
          "internalType": "address[]",
          "name": "holders",
          "type": "address[]"
        }
      ],
      "name": "batchDistribute",
      "outputs": [],
      "stateMutability": "nonpayable",
      "type": "function"
    },
    {
      "inputs": [
        {
          "internalType": "address",
          "name": "propertyToken",
          "type": "address"
        },
        {
          "internalType": "address",
          "name": "holder",
          "type": "address"
        }
      ],
      "name": "calculateShare",
      "outputs": [
        {
          "internalType": "uint256",
          "name": "",
          "type": "uint256"
        }
      ],
      "stateMutability": "view",
      "type": "function"
    },
    {
      "inputs": [
        {
          "internalType": "address",
          "name": "propertyToken",
          "type": "address"
        }
      ],
      "name": "claimPayout",
      "outputs": [],
      "stateMutability": "nonpayable",
      "type": "function"
    },
    {
      "inputs": [
        {
          "internalType": "address",
          "name": "propertyToken",
          "type": "address"
        }
      ],
      "name": "depositRentalIncome",
      "outputs": [],
      "stateMutability": "payable",
      "type": "function"
    },
    {
      "inputs": [],
      "name": "owner",
      "outputs": [
        {
          "internalType": "address",
          "name": "",
          "type": "address"
        }
      ],
      "stateMutability": "view",
      "type": "function"
    },
    {
      "inputs": [
        {
          "internalType": "address",
          "name": "",
          "type": "address"
        },
        {
          "internalType": "uint256",
          "name": "",
          "type": "uint256"
        }
      ],
      "name": "propertyPayouts",
      "outputs": [
        {
          "internalType": "uint256",
          "name": "amount",
          "type": "uint256"
        },
        {
          "internalType": "uint256",
          "name": "timestamp",
          "type": "uint256"
        },
        {
          "internalType": "uint256",
          "name": "totalTokensAtPayout",
          "type": "uint256"
        }
      ],
      "stateMutability": "view",
      "type": "function"
    },
    {
      "inputs": [],
      "name": "renounceOwnership",
      "outputs": [],
      "stateMutability": "nonpayable",
      "type": "function"
    },
    {
      "inputs": [
        {
          "internalType": "address",
          "name": "newOwner",
          "type": "address"
        }
      ],
      "name": "transferOwnership",
      "outputs": [],
      "stateMutability": "nonpayable",
      "type": "function"
    },
    {
      "inputs": [
        {
          "internalType": "address",
          "name": "",
          "type": "address"
        },
        {
          "internalType": "address",
          "name": "",
          "type": "address"
        }
      ],
      "name": "userLastPayoutIndex",
      "outputs": [
        {
          "internalType": "uint256",
          "name": "",
          "type": "uint256"
        }
      ],
      "stateMutability": "view",
      "type": "function"
    }
  ],
  "bytecode": "0x608060405234801561001057600080fd5b50338061003757604051631e4fbdf760e01b81526000600482015260240160405180910390fd5b6100408161004a565b506001805561009a565b600080546001600160a01b038381166001600160a01b0319831681178455604051919092169283917f8be0079c531659141344cd1fd0a4f28419497f9722a3daafe3b4186f6b6457e09190a35050565b610b03806100a96000396000f3fe6080604052600436106100865760003560e01c8063824331711161005957806382433171146101155780638da5cb5b1461015b578063f2fde38b14610183578063f3648ae6146101a3578063fee88cb6146101c357600080fd5b806314844ad91461008b57806326046888146100ad5780635cd17eac146100ed578063715018a614610100575b600080fd5b34801561009757600080fd5b506100ab6100a636600461091e565b6101e3565b005b3480156100b957600080fd5b506100cd6100c83660046109a4565b610374565b604080519384526020840192909252908201526060015b60405180910390f35b6100ab6100fb3660046109ce565b6103b6565b34801561010c57600080fd5b506100ab610565565b34801561012157600080fd5b5061014d6101303660046109f0565b600360209081526000928352604080842090915290825290205481565b6040519081526020016100e4565b34801561016757600080fd5b506000546040516001600160a01b0390911681526020016100e4565b34801561018f57600080fd5b506100ab61019e3660046109ce565b610579565b3480156101af57600080fd5b506100ab6101be3660046109ce565b6105b7565b3480156101cf57600080fd5b5061014d6101de3660046109f0565b610715565b6101eb61085b565b6101f3610888565b60005b8181101561036557600083838381811061021257610212610a23565b905060200201602081019061022791906109ce565b905060006102358683610715565b90508015610350576001600160a01b038681166000908152600260209081526040808320546003835281842094871680855294909252808320919091555190919083908381818185875af1925050503d80600081146102b0576040519150601f19603f3d011682016040523d82523d6000602084013e6102b5565b606091505b50509050806103015760405162461bcd60e51b815260206004820152601360248201527210985d18da081c185e5bdd5d0819985a5b1959606a1b60448201526064015b60405180910390fd5b826001600160a01b0316876001600160a01b03167f16b63aea592f9ff2536669385de33b0f5bdf01b81d2602c102556e57e5374ac78460405161034691815260200190565b60405180910390a3505b5050808061035d90610a4f565b9150506101f6565b5061036f60018055565b505050565b6002602052816000526040600020818154811061039057600080fd5b600091825260209091206003909102018054600182015460029092015490935090915083565b6103be61085b565b6000341161040e5760405162461bcd60e51b815260206004820152601d60248201527f416d6f756e74206d7573742062652067726561746572207468616e203000000060448201526064016102f8565b6000816001600160a01b03166318160ddd6040518163ffffffff1660e01b8152600401602060405180830381865afa15801561044e573d6000803e3d6000fd5b505050506040513d601f19601f820116820180604052508101906104729190610a68565b9050600081116104cf5760405162461bcd60e51b815260206004820152602260248201527f4e6f20746f6b656e73206d696e74656420666f7220746869732070726f706572604482015261747960f01b60648201526084016102f8565b6001600160a01b0382166000818152600260208181526040808420815160608101835234808252428286019081528285018a8152845460018082018755958a529887902093516003909902909301978855519287019290925551949093019390935591519081527f42b23f13d11af29b5af4e608225ac33f38ae00fafb19bc5ea732693983f9e1cd910160405180910390a25050565b61056d61085b565b61057760006108b2565b565b61058161085b565b6001600160a01b0381166105ab57604051631e4fbdf760e01b8152600060048201526024016102f8565b6105b4816108b2565b50565b6105bf610888565b60006105cb8233610715565b9050600081116106135760405162461bcd60e51b81526020600482015260136024820152724e6f207061796f757420617661696c61626c6560681b60448201526064016102f8565b6001600160a01b03821660009081526002602090815260408083205460038352818420338086529352818420555183908381818185875af1925050503d806000811461067b576040519150601f19603f3d011682016040523d82523d6000602084013e610680565b606091505b50509050806106ca5760405162461bcd60e51b815260206004820152601660248201527514185e5bdd5d081d1c985b9cd9995c8819985a5b195960521b60448201526064016102f8565b60405182815233906001600160a01b038516907f16b63aea592f9ff2536669385de33b0f5bdf01b81d2602c102556e57e5374ac79060200160405180910390a350506105b460018055565b6001600160a01b03828116600081815260036020908152604080832094861680845294825280832054848452600290925280832090516370a0823160e01b815260048101959095529193849391929184916370a0823190602401602060405180830381865afa15801561078c573d6000803e3d6000fd5b505050506040513d601f19601f820116820180604052508101906107b09190610a68565b9050806000036107c7576000945050505050610855565b825b825481101561084d578281815481106107e4576107e4610a23565b9060005260206000209060030201600201548284838154811061080957610809610a23565b9060005260206000209060030201600001546108259190610a81565b61082f9190610a98565b6108399086610aba565b94508061084581610a4f565b9150506107c9565b509293505050505b92915050565b6000546001600160a01b031633146105775760405163118cdaa760e01b81523360048201526024016102f8565b6002600154036108ab57604051633ee5aeb560e01b815260040160405180910390fd5b6002600155565b600080546001600160a01b038381166001600160a01b0319831681178455604051919092169283917f8be0079c531659141344cd1fd0a4f28419497f9722a3daafe3b4186f6b6457e09190a35050565b80356001600160a01b038116811461091957600080fd5b919050565b60008060006040848603121561093357600080fd5b61093c84610902565b9250602084013567ffffffffffffffff8082111561095957600080fd5b818601915086601f83011261096d57600080fd5b81358181111561097c57600080fd5b8760208260051b850101111561099157600080fd5b6020830194508093505050509250925092565b600080604083850312156109b757600080fd5b6109c083610902565b946020939093013593505050565b6000602082840312156109e057600080fd5b6109e982610902565b9392505050565b60008060408385031215610a0357600080fd5b610a0c83610902565b9150610a1a60208401610902565b90509250929050565b634e487b7160e01b600052603260045260246000fd5b634e487b7160e01b600052601160045260246000fd5b600060018201610a6157610a61610a39565b5060010190565b600060208284031215610a7a57600080fd5b5051919050565b808202811582820484141761085557610855610a39565b600082610ab557634e487b7160e01b600052601260045260246000fd5b500490565b8082018082111561085557610855610a3956fea2646970667358221220adc8136f171a4c5f6d8cb11efbc9e6d585770ed9c83f67a370065cb4354f0a9764736f6c63430008140033",
  "linkReferences": {},
  "deployedLinkReferences": {}
}